{
  "contractName": "ContractRepo",
  "abi": [
    {
      "inputs": [],
      "payable": false,
      "stateMutability": "nonpayable",
      "type": "constructor"
    },
    {
      "constant": true,
      "inputs": [
        {
          "internalType": "uint256",
          "name": "",
          "type": "uint256"
        }
      ],
      "name": "completedContracts",
      "outputs": [
        {
          "internalType": "address",
          "name": "",
          "type": "address"
        }
      ],
      "payable": false,
      "stateMutability": "view",
      "type": "function"
    },
    {
      "constant": true,
      "inputs": [
        {
          "internalType": "uint256",
          "name": "",
          "type": "uint256"
        }
      ],
      "name": "contractAddress",
      "outputs": [
        {
          "internalType": "address",
          "name": "",
          "type": "address"
        }
      ],
      "payable": false,
      "stateMutability": "view",
      "type": "function"
    },
    {
      "constant": true,
      "inputs": [
        {
          "internalType": "address",
          "name": "",
          "type": "address"
        }
      ],
      "name": "contractMapping",
      "outputs": [
        {
          "internalType": "enum ContractRepo.ContractStatus",
          "name": "",
          "type": "uint8"
        }
      ],
      "payable": false,
      "stateMutability": "view",
      "type": "function"
    },
    {
      "constant": false,
      "inputs": [
        {
          "internalType": "address",
          "name": "contractToAppend",
          "type": "address"
        }
      ],
      "name": "addToContracts",
      "outputs": [
        {
          "internalType": "bool",
          "name": "",
          "type": "bool"
        }
      ],
      "payable": false,
      "stateMutability": "nonpayable",
      "type": "function"
    },
    {
      "constant": true,
      "inputs": [],
      "name": "getAllContracts",
      "outputs": [
        {
          "internalType": "address[]",
          "name": "",
          "type": "address[]"
        }
      ],
      "payable": false,
      "stateMutability": "view",
      "type": "function"
    },
    {
      "constant": true,
      "inputs": [],
      "name": "getContractCount",
      "outputs": [
        {
          "internalType": "uint256",
          "name": "",
          "type": "uint256"
        }
      ],
      "payable": false,
      "stateMutability": "view",
      "type": "function"
    },
    {
      "constant": true,
      "inputs": [
        {
          "internalType": "uint256",
          "name": "index",
          "type": "uint256"
        }
      ],
      "name": "getOngoingContracts",
      "outputs": [
        {
          "internalType": "address",
          "name": "",
          "type": "address"
        }
      ],
      "payable": false,
      "stateMutability": "view",
      "type": "function"
    },
    {
      "constant": true,
      "inputs": [],
      "name": "getCompletedContracts",
      "outputs": [
        {
          "internalType": "address[]",
          "name": "",
          "type": "address[]"
        }
      ],
      "payable": false,
      "stateMutability": "view",
      "type": "function"
    },
    {
      "constant": false,
      "inputs": [
        {
          "internalType": "address",
          "name": "contractAddress",
          "type": "address"
        }
      ],
      "name": "updateContractStatusToComplete",
      "outputs": [],
      "payable": false,
      "stateMutability": "nonpayable",
      "type": "function"
    }
  ],
  "bytecode": "0x608060405234801561001057600080fd5b50610945806100206000396000f3fe608060405234801561001057600080fd5b50600436106100935760003560e01c80639399869d116100665780639399869d14610134578063a475c3e714610152578063cd10744414610182578063ea86abc3146101b2578063fd17c99e146101e257610093565b80630d0eec091461009857806313c01368146100c857806318d3ce96146100f85780638db7a68f14610116575b600080fd5b6100b260048036036100ad91908101906106a9565b6101fe565b6040516100bf9190610793565b60405180910390f35b6100e260048036036100dd91908101906106a9565b6102fb565b6040516100ef9190610793565b60405180910390f35b610100610337565b60405161010d91906107ae565b60405180910390f35b61011e6103c5565b60405161012b91906107ae565b60405180910390f35b61013c610453565b6040516101499190610806565b60405180910390f35b61016c600480360361016791908101906106a9565b61045f565b6040516101799190610793565b60405180910390f35b61019c60048036036101979190810190610680565b61049b565b6040516101a991906107eb565b60405180910390f35b6101cc60048036036101c79190810190610680565b6104bb565b6040516101d991906107d0565b60405180910390f35b6101fc60048036036101f79190810190610680565b61058c565b005b6000808054905082111561021157600080fd5b6000600181111561021e57fe5b6002600080858154811061022e57fe5b9060005260206000200160009054906101000a900473ffffffffffffffffffffffffffffffffffffffff1673ffffffffffffffffffffffffffffffffffffffff1673ffffffffffffffffffffffffffffffffffffffff16815260200190815260200160002060009054906101000a900460ff1660018111156102ac57fe5b14156102f157600082815481106102bf57fe5b9060005260206000200160009054906101000a900473ffffffffffffffffffffffffffffffffffffffff1690506102f6565b600080fd5b919050565b6000818154811061030857fe5b906000526020600020016000915054906101000a900473ffffffffffffffffffffffffffffffffffffffff1681565b606060008054806020026020016040519081016040528092919081815260200182805480156103bb57602002820191906000526020600020905b8160009054906101000a900473ffffffffffffffffffffffffffffffffffffffff1673ffffffffffffffffffffffffffffffffffffffff1681526020019060010190808311610371575b5050505050905090565b6060600180548060200260200160405190810160405280929190818152602001828054801561044957602002820191906000526020600020905b8160009054906101000a900473ffffffffffffffffffffffffffffffffffffffff1673ffffffffffffffffffffffffffffffffffffffff16815260200190600101908083116103ff575b5050505050905090565b60008080549050905090565b6001818154811061046c57fe5b906000526020600020016000915054906101000a900473ffffffffffffffffffffffffffffffffffffffff1681565b60026020528060005260406000206000915054906101000a900460ff1681565b6000808290806001815401808255809150509060018203906000526020600020016000909192909190916101000a81548173ffffffffffffffffffffffffffffffffffffffff021916908373ffffffffffffffffffffffffffffffffffffffff160217905550506000600260008473ffffffffffffffffffffffffffffffffffffffff1673ffffffffffffffffffffffffffffffffffffffff16815260200190815260200160002060006101000a81548160ff0219169083600181111561057e57fe5b021790555060019050919050565b6001600260008373ffffffffffffffffffffffffffffffffffffffff1673ffffffffffffffffffffffffffffffffffffffff16815260200190815260200160002060006101000a81548160ff021916908360018111156105e857fe5b021790555060018190806001815401808255809150509060018203906000526020600020016000909192909190916101000a81548173ffffffffffffffffffffffffffffffffffffffff021916908373ffffffffffffffffffffffffffffffffffffffff1602179055505050565b600081359050610665816108d4565b92915050565b60008135905061067a816108eb565b92915050565b60006020828403121561069257600080fd5b60006106a084828501610656565b91505092915050565b6000602082840312156106bb57600080fd5b60006106c98482850161066b565b91505092915050565b60006106de83836106ea565b60208301905092915050565b6106f38161085a565b82525050565b6107028161085a565b82525050565b600061071382610831565b61071d8185610849565b935061072883610821565b8060005b8381101561075957815161074088826106d2565b975061074b8361083c565b92505060018101905061072c565b5085935050505092915050565b61076f8161086c565b82525050565b61077e816108b5565b82525050565b61078d816108ab565b82525050565b60006020820190506107a860008301846106f9565b92915050565b600060208201905081810360008301526107c88184610708565b905092915050565b60006020820190506107e56000830184610766565b92915050565b60006020820190506108006000830184610775565b92915050565b600060208201905061081b6000830184610784565b92915050565b6000819050602082019050919050565b600081519050919050565b6000602082019050919050565b600082825260208201905092915050565b60006108658261088b565b9050919050565b60008115159050919050565b6000819050610886826108c7565b919050565b600073ffffffffffffffffffffffffffffffffffffffff82169050919050565b6000819050919050565b60006108c082610878565b9050919050565b600281106108d157fe5b50565b6108dd8161085a565b81146108e857600080fd5b50565b6108f4816108ab565b81146108ff57600080fd5b5056fea365627a7a72315820d2cb2e11568191fae488458131f007b88a3521636037574eed264b33469ef47b6c6578706572696d656e74616cf564736f6c634300050c0040",
  "source": "pragma solidity ^0.5.11;\npragma experimental ABIEncoderV2;\n\n\ncontract ContractRepo {\n    address[] public contractAddress;\n    address[] public completedContracts; //used for quick access to Completed Contracts\n\n    enum ContractStatus {\n        onGoing,\n        complete\n    }\n\n    mapping (address=>ContractStatus) public contractMapping;\n\n    constructor () public {\n\n    }\n\n    function addToContracts(address contractToAppend) public returns (bool) {\n        contractAddress.push(contractToAppend);\n        contractMapping[contractToAppend] = ContractStatus.onGoing;\n        return true;\n    }\n\n    function getAllContracts() public view returns (address[] memory ) {\n        return contractAddress;\n    }\n\n    function getContractCount() public view returns (uint256) {\n        return contractAddress.length;\n    }\n\n    function getOngoingContracts(uint256 index) public view returns (address) {\n        //loop at web3\n        if (index > contractAddress.length) revert();\n        if (contractMapping[contractAddress[index]] == ContractStatus.onGoing) {\n            return contractAddress[index]; \n        }\n        revert();\n    }\n\n    function getCompletedContracts() public view returns (address[] memory) {\n        return completedContracts;\n    }\n\n    function updateContractStatusToComplete(address contractAddress) public {\n        contractMapping[contractAddress] = ContractStatus.complete;\n        completedContracts.push(contractAddress);\n    }\n\n}",
  "sourcePath": "/home/vipin/Desktop/tender_SIH/contracts/ContractRepo.sol",
  "compiler": {
    "name": "solc",
    "version": "0.5.12+commit.7709ece9.Emscripten.clang"
  },
  "schemaVersion": "3.0.20",
  "updatedAt": "2020-01-09T09:45:15.481Z",
  "devdoc": {
    "methods": {}
  },
  "userdoc": {
    "methods": {}
  }
}