{
  "contractName": "Contract",
  "abi": [
    {
      "inputs": [],
      "payable": false,
      "stateMutability": "nonpayable",
      "type": "constructor"
    },
    {
      "constant": true,
      "inputs": [],
      "name": "completionDate",
      "outputs": [
        {
          "internalType": "uint256",
          "name": "",
          "type": "uint256"
        }
      ],
      "payable": false,
      "stateMutability": "view",
      "type": "function"
    },
    {
      "constant": true,
      "inputs": [
        {
          "internalType": "uint256",
          "name": "",
          "type": "uint256"
        }
      ],
      "name": "constraints",
      "outputs": [
        {
          "internalType": "string",
          "name": "",
          "type": "string"
        }
      ],
      "payable": false,
      "stateMutability": "view",
      "type": "function"
    },
    {
      "constant": true,
      "inputs": [],
      "name": "contractName",
      "outputs": [
        {
          "internalType": "string",
          "name": "",
          "type": "string"
        }
      ],
      "payable": false,
      "stateMutability": "view",
      "type": "function"
    },
    {
      "constant": true,
      "inputs": [],
      "name": "contractorAddress",
      "outputs": [
        {
          "internalType": "address",
          "name": "",
          "type": "address"
        }
      ],
      "payable": false,
      "stateMutability": "view",
      "type": "function"
    },
    {
      "constant": true,
      "inputs": [],
      "name": "creationDate",
      "outputs": [
        {
          "internalType": "uint256",
          "name": "",
          "type": "uint256"
        }
      ],
      "payable": false,
      "stateMutability": "view",
      "type": "function"
    },
    {
      "constant": true,
      "inputs": [],
      "name": "governmentOfficerAddress",
      "outputs": [
        {
          "internalType": "address",
          "name": "",
          "type": "address"
        }
      ],
      "payable": false,
      "stateMutability": "view",
      "type": "function"
    },
    {
      "constant": true,
      "inputs": [],
      "name": "governmentOfficerVerified",
      "outputs": [
        {
          "internalType": "bool",
          "name": "",
          "type": "bool"
        }
      ],
      "payable": false,
      "stateMutability": "view",
      "type": "function"
    },
    {
      "constant": true,
      "inputs": [
        {
          "internalType": "uint256",
          "name": "",
          "type": "uint256"
        }
      ],
      "name": "tasks",
      "outputs": [
        {
          "internalType": "string",
          "name": "description",
          "type": "string"
        },
        {
          "internalType": "uint256",
          "name": "deadlineTime",
          "type": "uint256"
        },
        {
          "internalType": "uint256",
          "name": "amount",
          "type": "uint256"
        },
        {
          "internalType": "enum Contract.TaskStatus",
          "name": "status",
          "type": "uint8"
        },
        {
          "internalType": "uint256",
          "name": "completionTime",
          "type": "uint256"
        }
      ],
      "payable": false,
      "stateMutability": "view",
      "type": "function"
    },
    {
      "constant": false,
      "inputs": [
        {
          "internalType": "address",
          "name": "_governmentOfficerAddress",
          "type": "address"
        },
        {
          "internalType": "address",
          "name": "_contractorAddress",
          "type": "address"
        },
        {
          "internalType": "string",
          "name": "_tenderId",
          "type": "string"
        },
        {
          "internalType": "uint256",
          "name": "_completionDate",
          "type": "uint256"
        },
        {
          "internalType": "string[]",
          "name": "_constraints",
          "type": "string[]"
        }
      ],
      "name": "setContractBasic",
      "outputs": [],
      "payable": true,
      "stateMutability": "payable",
      "type": "function"
    },
    {
      "constant": false,
      "inputs": [
        {
          "internalType": "string",
          "name": "_contractName",
          "type": "string"
        },
        {
          "internalType": "uint256",
          "name": "_finalQuotationAmount",
          "type": "uint256"
        },
        {
          "internalType": "string[]",
          "name": "_taskDescription",
          "type": "string[]"
        },
        {
          "internalType": "uint256[]",
          "name": "_deadlineForEachTask",
          "type": "uint256[]"
        },
        {
          "internalType": "uint256[]",
          "name": "_amountForEachTask",
          "type": "uint256[]"
        },
        {
          "internalType": "uint256",
          "name": "_reviewtime",
          "type": "uint256"
        }
      ],
      "name": "setContractAdvanced",
      "outputs": [],
      "payable": true,
      "stateMutability": "payable",
      "type": "function"
    },
    {
      "constant": true,
      "inputs": [],
      "name": "getContractBasic",
      "outputs": [
        {
          "internalType": "string",
          "name": "",
          "type": "string"
        },
        {
          "internalType": "address",
          "name": "",
          "type": "address"
        },
        {
          "internalType": "address",
          "name": "",
          "type": "address"
        },
        {
          "internalType": "string",
          "name": "",
          "type": "string"
        },
        {
          "internalType": "uint256",
          "name": "",
          "type": "uint256"
        },
        {
          "internalType": "uint256",
          "name": "",
          "type": "uint256"
        }
      ],
      "payable": false,
      "stateMutability": "view",
      "type": "function"
    },
    {
      "constant": true,
      "inputs": [],
      "name": "getContractAdvanced",
      "outputs": [
        {
          "internalType": "string",
          "name": "",
          "type": "string"
        },
        {
          "internalType": "uint256",
          "name": "",
          "type": "uint256"
        },
        {
          "internalType": "string[]",
          "name": "",
          "type": "string[]"
        }
      ],
      "payable": false,
      "stateMutability": "view",
      "type": "function"
    },
    {
      "constant": true,
      "inputs": [],
      "name": "getContractName",
      "outputs": [
        {
          "internalType": "string",
          "name": "",
          "type": "string"
        }
      ],
      "payable": false,
      "stateMutability": "view",
      "type": "function"
    },
    {
      "constant": true,
      "inputs": [],
      "name": "getCompletionDate",
      "outputs": [
        {
          "internalType": "uint256",
          "name": "",
          "type": "uint256"
        }
      ],
      "payable": false,
      "stateMutability": "view",
      "type": "function"
    },
    {
      "constant": true,
      "inputs": [],
      "name": "getNumberOfTasks",
      "outputs": [
        {
          "internalType": "uint256",
          "name": "",
          "type": "uint256"
        }
      ],
      "payable": false,
      "stateMutability": "view",
      "type": "function"
    },
    {
      "constant": true,
      "inputs": [
        {
          "internalType": "uint256",
          "name": "index",
          "type": "uint256"
        }
      ],
      "name": "getTask",
      "outputs": [
        {
          "internalType": "string",
          "name": "",
          "type": "string"
        },
        {
          "internalType": "uint256",
          "name": "",
          "type": "uint256"
        },
        {
          "internalType": "uint256",
          "name": "",
          "type": "uint256"
        },
        {
          "internalType": "enum Contract.TaskStatus",
          "name": "",
          "type": "uint8"
        },
        {
          "internalType": "uint256",
          "name": "",
          "type": "uint256"
        }
      ],
      "payable": false,
      "stateMutability": "view",
      "type": "function"
    },
    {
      "constant": false,
      "inputs": [
        {
          "internalType": "uint256",
          "name": "_taskIndex",
          "type": "uint256"
        }
      ],
      "name": "taskCompletedByContractor",
      "outputs": [],
      "payable": false,
      "stateMutability": "nonpayable",
      "type": "function"
    },
    {
      "constant": false,
      "inputs": [
        {
          "internalType": "uint256",
          "name": "_taskIndex",
          "type": "uint256"
        }
      ],
      "name": "verifyTask",
      "outputs": [
        {
          "internalType": "bool",
          "name": "",
          "type": "bool"
        }
      ],
      "payable": false,
      "stateMutability": "nonpayable",
      "type": "function"
    },
    {
      "constant": false,
      "inputs": [
        {
          "internalType": "uint256",
          "name": "_taskIndex",
          "type": "uint256"
        }
      ],
      "name": "withdrawForTask",
      "outputs": [
        {
          "internalType": "bool",
          "name": "",
          "type": "bool"
        }
      ],
      "payable": false,
      "stateMutability": "nonpayable",
      "type": "function"
    }
  ],
  "bytecode": "0x608060405234801561001057600080fd5b50611cc2806100206000396000f3fe6080604052600436106101145760003560e01c806375d0c0dc116100a0578063c2f218b911610064578063c2f218b9146103b7578063e87870b6146103e7578063f21376af14610412578063f5f5ba721461043d578063f6397fd31461046857610114565b806375d0c0dc146102d95780638a2cfcc4146103045780638d9776721461032f578063a783fd9214610370578063a83752021461039b57610114565b80633e959bc8116100e75780633e959bc8146101de57806344e446a41461020757806345bf2d2c1461023457806346d722e7146102715780635573e3ef1461029c57610114565b8063041f624f1461011957806305b34410146101565780631d65e77e146101815780632e498b90146101c2575b600080fd5b34801561012557600080fd5b50610140600480360361013b91908101906116a8565b610493565b60405161014d9190611877565b60405180910390f35b34801561016257600080fd5b5061016b61054c565b6040516101789190611a23565b60405180910390f35b34801561018d57600080fd5b506101a860048036036101a391908101906116a8565b610552565b6040516101b995949392919061196f565b60405180910390f35b6101dc60048036036101d791908101906115bf565b6106b0565b005b3480156101ea57600080fd5b50610205600480360361020091908101906116a8565b610881565b005b34801561021357600080fd5b5061021c6108de565b60405161022b9392919061192a565b60405180910390f35b34801561024057600080fd5b5061025b600480360361025691908101906116a8565b610a75565b604051610268919061185c565b60405180910390f35b34801561027d57600080fd5b50610286610ad6565b6040516102939190611841565b60405180910390f35b3480156102a857600080fd5b506102c360048036036102be91908101906116a8565b610afb565b6040516102d0919061185c565b60405180910390f35b3480156102e557600080fd5b506102ee610b5b565b6040516102fb9190611877565b60405180910390f35b34801561031057600080fd5b50610319610bf9565b6040516103269190611a23565b60405180910390f35b34801561033b57600080fd5b50610356600480360361035191908101906116a8565b610c03565b6040516103679594939291906119c9565b60405180910390f35b34801561037c57600080fd5b50610385610ceb565b604051610392919061185c565b60405180910390f35b6103b560048036036103b09190810190611518565b610cfe565b005b3480156103c357600080fd5b506103cc610dc2565b6040516103de969594939291906118bb565b60405180910390f35b3480156103f357600080fd5b506103fc610f67565b6040516104099190611a23565b60405180910390f35b34801561041e57600080fd5b50610427610f6d565b6040516104349190611841565b60405180910390f35b34801561044957600080fd5b50610452610f93565b60405161045f9190611899565b60405180910390f35b34801561047457600080fd5b5061047d611035565b60405161048a9190611a23565b60405180910390f35b600581815481106104a057fe5b906000526020600020016000915090508054600181600116156101000203166002900480601f0160208091040260200160405190810160405280929190818152602001828054600181600116156101000203166002900480156105445780601f1061051957610100808354040283529160200191610544565b820191906000526020600020905b81548152906001019060200180831161052757829003601f168201915b505050505081565b60035481565b6060600080600080600a868154811061056757fe5b9060005260206000209060050201600001600a878154811061058557fe5b906000526020600020906005020160010154600a88815481106105a457fe5b906000526020600020906005020160020154600a89815481106105c357fe5b906000526020600020906005020160030160009054906101000a900460ff16600a8a815481106105ef57fe5b906000526020600020906005020160040154848054600181600116156101000203166002900480601f0160208091040260200160405190810160405280929190818152602001828054600181600116156101000203166002900480156106965780601f1061066b57610100808354040283529160200191610696565b820191906000526020600020905b81548152906001019060200180831161067957829003601f168201915b505050505094509450945094509450945091939590929450565b85600890805190602001906106c6929190611042565b5084600681905550600080905060008090505b8551811015610851576000600a8080548091906001016106f991906110c2565b8154811061070357fe5b9060005260206000209060050201905086828151811061071f57fe5b602002602001015181600001908051906020019061073e929190611042565b5085828151811061074b57fe5b6020026020010151816001018190555084828151811061076757fe5b60200260200101518160020181905550670de0b6b3a76400008160020154028301925060008160030160006101000a81548160ff021916908360048111156107ab57fe5b02179055508060096000848152602001908152602001600020600082018160000190805460018160011615610100020316600290046107eb9291906110f4565b5060018201548160010155600282015481600201556003820160009054906101000a900460ff168160030160006101000a81548160ff0219169083600481111561083157fe5b0217905550600482015481600401559050505080806001019150506106d9565b50670de0b6b3a7640000340281111561086957600080fd5b60065481111561087857600080fd5b50505050505050565b600160009054906101000a900473ffffffffffffffffffffffffffffffffffffffff1673ffffffffffffffffffffffffffffffffffffffff163373ffffffffffffffffffffffffffffffffffffffff16146108db57600080fd5b50565b60606000606060086006546005828054600181600116156101000203166002900480601f0160208091040260200160405190810160405280929190818152602001828054600181600116156101000203166002900480156109805780601f1061095557610100808354040283529160200191610980565b820191906000526020600020905b81548152906001019060200180831161096357829003601f168201915b5050505050925080805480602002602001604051908101604052809291908181526020016000905b82821015610a64578382906000526020600020018054600181600116156101000203166002900480601f016020809104026020016040519081016040528092919081815260200182805460018160011615610100020316600290048015610a505780601f10610a2557610100808354040283529160200191610a50565b820191906000526020600020905b815481529060010190602001808311610a3357829003601f168201915b5050505050815260200190600101906109a8565b505050509050925092509250909192565b6000600160009054906101000a900473ffffffffffffffffffffffffffffffffffffffff1673ffffffffffffffffffffffffffffffffffffffff163373ffffffffffffffffffffffffffffffffffffffff1614610ad157600080fd5b919050565b6000809054906101000a900473ffffffffffffffffffffffffffffffffffffffff1681565b60008060009054906101000a900473ffffffffffffffffffffffffffffffffffffffff1673ffffffffffffffffffffffffffffffffffffffff163373ffffffffffffffffffffffffffffffffffffffff1614610b5657600080fd5b919050565b60088054600181600116156101000203166002900480601f016020809104026020016040519081016040528092919081815260200182805460018160011615610100020316600290048015610bf15780601f10610bc657610100808354040283529160200191610bf1565b820191906000526020600020905b815481529060010190602001808311610bd457829003601f168201915b505050505081565b6000600454905090565b600a8181548110610c1057fe5b9060005260206000209060050201600091509050806000018054600181600116156101000203166002900480601f016020809104026020016040519081016040528092919081815260200182805460018160011615610100020316600290048015610cbc5780601f10610c9157610100808354040283529160200191610cbc565b820191906000526020600020905b815481529060010190602001808311610c9f57829003601f168201915b5050505050908060010154908060020154908060030160009054906101000a900460ff16908060040154905085565b600760009054906101000a900460ff1681565b846000806101000a81548173ffffffffffffffffffffffffffffffffffffffff021916908373ffffffffffffffffffffffffffffffffffffffff16021790555083600160006101000a81548173ffffffffffffffffffffffffffffffffffffffff021916908373ffffffffffffffffffffffffffffffffffffffff1602179055508260029080519060200190610d95929190611042565b508060059080519060200190610dac92919061117b565b5042600381905550816004819055505050505050565b6060600080606060008060086000809054906101000a900473ffffffffffffffffffffffffffffffffffffffff16600160009054906101000a900473ffffffffffffffffffffffffffffffffffffffff166002600354600454858054600181600116156101000203166002900480601f016020809104026020016040519081016040528092919081815260200182805460018160011615610100020316600290048015610eb05780601f10610e8557610100808354040283529160200191610eb0565b820191906000526020600020905b815481529060010190602001808311610e9357829003601f168201915b50505050509550828054600181600116156101000203166002900480601f016020809104026020016040519081016040528092919081815260200182805460018160011615610100020316600290048015610f4c5780601f10610f2157610100808354040283529160200191610f4c565b820191906000526020600020905b815481529060010190602001808311610f2f57829003601f168201915b50505050509250955095509550955095509550909192939495565b60045481565b600160009054906101000a900473ffffffffffffffffffffffffffffffffffffffff1681565b606060088054600181600116156101000203166002900480601f01602080910402602001604051908101604052809291908181526020018280546001816001161561010002031660029004801561102b5780601f106110005761010080835404028352916020019161102b565b820191906000526020600020905b81548152906001019060200180831161100e57829003601f168201915b5050505050905090565b6000600a80549050905090565b828054600181600116156101000203166002900490600052602060002090601f016020900481019282601f1061108357805160ff19168380011785556110b1565b828001600101855582156110b1579182015b828111156110b0578251825591602001919060010190611095565b5b5090506110be91906111db565b5090565b8154818355818111156110ef576005028160050283600052602060002091820191016110ee9190611200565b5b505050565b828054600181600116156101000203166002900490600052602060002090601f016020900481019282601f1061112d578054855561116a565b8280016001018555821561116a57600052602060002091601f016020900482015b8281111561116957825482559160010191906001019061114e565b5b50905061117791906111db565b5090565b8280548282559060005260206000209081019282156111ca579160200282015b828111156111c95782518290805190602001906111b992919061125b565b509160200191906001019061119b565b5b5090506111d791906112db565b5090565b6111fd91905b808211156111f95760008160009055506001016111e1565b5090565b90565b61125891905b80821115611254576000808201600061121f9190611307565b600182016000905560028201600090556003820160006101000a81549060ff0219169055600482016000905550600501611206565b5090565b90565b828054600181600116156101000203166002900490600052602060002090601f016020900481019282601f1061129c57805160ff19168380011785556112ca565b828001600101855582156112ca579182015b828111156112c95782518255916020019190600101906112ae565b5b5090506112d791906111db565b5090565b61130491905b8082111561130057600081816112f79190611307565b506001016112e1565b5090565b90565b50805460018160011615610100020316600290046000825580601f1061132d575061134c565b601f01602090049060005260206000209081019061134b91906111db565b5b50565b60008135905061135e81611c51565b92915050565b600082601f83011261137557600080fd5b813561138861138382611a6b565b611a3e565b9150818183526020840193506020810190508360005b838110156113ce57813586016113b4888261145b565b84526020840193506020830192505060018101905061139e565b5050505092915050565b600082601f8301126113e957600080fd5b81356113fc6113f782611a93565b611a3e565b9150818183526020840193506020810190508385602084028201111561142157600080fd5b60005b8381101561145157816114378882611503565b845260208401935060208301925050600181019050611424565b5050505092915050565b600082601f83011261146c57600080fd5b813561147f61147a82611abb565b611a3e565b9150808252602083016020830185838301111561149b57600080fd5b6114a6838284611bf1565b50505092915050565b600082601f8301126114c057600080fd5b81356114d36114ce82611ae7565b611a3e565b915080825260208301602083018583830111156114ef57600080fd5b6114fa838284611bf1565b50505092915050565b60008135905061151281611c68565b92915050565b600080600080600060a0868803121561153057600080fd5b600061153e8882890161134f565b955050602061154f8882890161134f565b945050604086013567ffffffffffffffff81111561156c57600080fd5b611578888289016114af565b935050606061158988828901611503565b925050608086013567ffffffffffffffff8111156115a657600080fd5b6115b288828901611364565b9150509295509295909350565b60008060008060008060c087890312156115d857600080fd5b600087013567ffffffffffffffff8111156115f257600080fd5b6115fe89828a016114af565b965050602061160f89828a01611503565b955050604087013567ffffffffffffffff81111561162c57600080fd5b61163889828a01611364565b945050606087013567ffffffffffffffff81111561165557600080fd5b61166189828a016113d8565b935050608087013567ffffffffffffffff81111561167e57600080fd5b61168a89828a016113d8565b92505060a061169b89828a01611503565b9150509295509295509295565b6000602082840312156116ba57600080fd5b60006116c884828501611503565b91505092915050565b60006116dd83836117c0565b905092915050565b6116ee81611b84565b82525050565b60006116ff82611b23565b6117098185611b51565b93508360208202850161171b85611b13565b8060005b85811015611757578484038952815161173885826116d1565b945061174383611b44565b925060208a0199505060018101905061171f565b50829750879550505050505092915050565b61177281611b96565b82525050565b61178181611bdf565b82525050565b600061179282611b39565b61179c8185611b73565b93506117ac818560208601611c00565b6117b581611c33565b840191505092915050565b60006117cb82611b2e565b6117d58185611b62565b93506117e5818560208601611c00565b6117ee81611c33565b840191505092915050565b600061180482611b2e565b61180e8185611b73565b935061181e818560208601611c00565b61182781611c33565b840191505092915050565b61183b81611bd5565b82525050565b600060208201905061185660008301846116e5565b92915050565b60006020820190506118716000830184611769565b92915050565b6000602082019050818103600083015261189181846117f9565b905092915050565b600060208201905081810360008301526118b38184611787565b905092915050565b600060c08201905081810360008301526118d58189611787565b90506118e460208301886116e5565b6118f160408301876116e5565b81810360608301526119038186611787565b90506119126080830185611832565b61191f60a0830184611832565b979650505050505050565b600060608201905081810360008301526119448186611787565b90506119536020830185611832565b818103604083015261196581846116f4565b9050949350505050565b600060a08201905081810360008301526119898188611787565b90506119986020830187611832565b6119a56040830186611832565b6119b26060830185611778565b6119bf6080830184611832565b9695505050505050565b600060a08201905081810360008301526119e381886117f9565b90506119f26020830187611832565b6119ff6040830186611832565b611a0c6060830185611778565b611a196080830184611832565b9695505050505050565b6000602082019050611a386000830184611832565b92915050565b6000604051905081810181811067ffffffffffffffff82111715611a6157600080fd5b8060405250919050565b600067ffffffffffffffff821115611a8257600080fd5b602082029050602081019050919050565b600067ffffffffffffffff821115611aaa57600080fd5b602082029050602081019050919050565b600067ffffffffffffffff821115611ad257600080fd5b601f19601f8301169050602081019050919050565b600067ffffffffffffffff821115611afe57600080fd5b601f19601f8301169050602081019050919050565b6000819050602082019050919050565b600081519050919050565b600081519050919050565b600081519050919050565b6000602082019050919050565b600082825260208201905092915050565b600082825260208201905092915050565b600082825260208201905092915050565b6000611b8f82611bb5565b9050919050565b60008115159050919050565b6000819050611bb082611c44565b919050565b600073ffffffffffffffffffffffffffffffffffffffff82169050919050565b6000819050919050565b6000611bea82611ba2565b9050919050565b82818337600083830152505050565b60005b83811015611c1e578082015181840152602081019050611c03565b83811115611c2d576000848401525b50505050565b6000601f19601f8301169050919050565b60058110611c4e57fe5b50565b611c5a81611b84565b8114611c6557600080fd5b50565b611c7181611bd5565b8114611c7c57600080fd5b5056fea365627a7a7231582015cc1290bb6e4777a4c8aef3e1b20a73b3e9b0986b582e0c3d78075514d1d9cd6c6578706572696d656e74616cf564736f6c634300050c0040",
  "source": "pragma solidity ^0.5.11;\r\npragma experimental ABIEncoderV2;\r\n\r\n\r\ncontract Contract {   \r\n    address public governmentOfficerAddress;\r\n    address public contractorAddress;\r\n    string tenderId;\r\n    uint public creationDate;\r\n    uint public completionDate;\r\n    string[] public constraints;\r\n    uint finalQuotationAmount;\r\n    //address public specialOfficerAddress;\r\n\r\n    bool public governmentOfficerVerified;\r\n    //bool public specialOfficerVerified;\r\n\r\n    string public contractName;\r\n\r\n    mapping (uint=>Task) private taskIndexMapping;\r\n    \r\n    struct Task {\r\n        string description;\r\n        uint deadlineTime;\r\n        uint amount; \r\n        TaskStatus status;\r\n        uint completionTime; \r\n    }\r\n\r\n    enum TaskStatus {\r\n        pending,\r\n        reportedComplete,\r\n        partiallyVerified,\r\n        complete,\r\n        contractorPaid\r\n    }\r\n\r\n    Task[] public tasks;\r\n\r\n    modifier onlyGovernmentOfficer {\r\n        if (msg.sender != governmentOfficerAddress) {\r\n            revert();\r\n            _;\r\n        }\r\n    }\r\n\r\n    modifier onlyContractor {\r\n        if (msg.sender != contractorAddress) {\r\n            revert();\r\n            _;\r\n        }\r\n    }\r\n\r\n    // modifier onlySpecialOfficer {\r\n    //     if (msg.sender != specialOfficerAddress) {\r\n    //         revert();\r\n    //         _;\r\n    //     }\r\n    // }\r\n\r\n    constructor () public {\r\n\r\n    }\r\n    \r\n    function setContractBasic (\r\n        address _governmentOfficerAddress, \r\n        address _contractorAddress, \r\n        string memory _tenderId,\r\n        uint _completionDate,\r\n        string[] memory _constraints\r\n        ) public payable {\r\n        governmentOfficerAddress = _governmentOfficerAddress;\r\n        contractorAddress = _contractorAddress;\r\n        tenderId = _tenderId;\r\n        constraints = _constraints;\r\n        creationDate = now;\r\n        completionDate = _completionDate;\r\n    }\r\n\r\n    function setContractAdvanced (\r\n        string memory _contractName, \r\n        uint _finalQuotationAmount,\r\n        string[] memory _taskDescription, \r\n        uint[] memory _deadlineForEachTask, \r\n        uint[] memory _amountForEachTask, \r\n        uint _reviewtime) public payable {\r\n        \r\n        contractName = _contractName;\r\n        finalQuotationAmount = _finalQuotationAmount;\r\n        uint totalAmount = 0;\r\n        for (uint i=0; i < _taskDescription.length; i++) {\r\n            Task storage task = tasks[tasks.length++];\r\n            task.description = _taskDescription[i];\r\n            task.deadlineTime = _deadlineForEachTask[i];\r\n            task.amount = _amountForEachTask[i];\r\n            totalAmount += task.amount*(1 ether);\r\n            task.status = TaskStatus.pending;\r\n            taskIndexMapping[i] = task;\r\n        }\r\n        if (totalAmount > msg.value*(1 ether)) {\r\n            revert();\r\n        }\r\n        if (totalAmount > finalQuotationAmount) {\r\n            revert();\r\n        }\r\n        //ContractDeployed();\r\n    }\r\n\r\n    function getContractBasic() public view returns (string memory, address, address, string memory,\r\n    uint, uint) {\r\n        return (contractName, governmentOfficerAddress, contractorAddress, tenderId,\r\n        creationDate, completionDate);\r\n    }\r\n\r\n    function getContractAdvanced() public view returns (string memory, uint, string[] memory) {\r\n        return (contractName, finalQuotationAmount, \r\n        constraints);\r\n    }\r\n\r\n    function getContractName() public view returns (string memory) {\r\n        return contractName;\r\n    }\r\n\r\n    function getCompletionDate() public view returns (uint) {\r\n        return completionDate;\r\n    }\r\n\r\n    function getNumberOfTasks() public view returns (uint) {\r\n        return tasks.length;\r\n    }\r\n\r\n    function getTask(uint256 index) public view returns (string memory, uint, uint, TaskStatus, uint) {\r\n        return (tasks[index].description, tasks[index].deadlineTime, tasks[index].amount,\r\n        tasks[index].status, tasks[index].completionTime);\r\n    }\r\n\r\n    function taskCompletedByContractor(uint _taskIndex) public onlyContractor {\r\n        if (_taskIndex >= tasks.length) revert();\r\n        Task storage task = tasks[_taskIndex];\r\n\r\n        if (msg.sender != contractorAddress) revert();\r\n        if (task.status != TaskStatus.pending) revert();\r\n        if (now > task.deadlineTime) revert();\r\n        task.status = TaskStatus.reportedComplete;\r\n        task.completionTime = now;\r\n        //eventToFire\r\n    }\r\n\r\n    function verifyTask(uint _taskIndex) public onlyGovernmentOfficer returns (bool) {\r\n        if (_taskIndex >= tasks.length) revert();\r\n        Task storage task = tasks[_taskIndex];\r\n\r\n        if (task.status != TaskStatus.reportedComplete) revert();\r\n        if (msg.sender == governmentOfficerAddress) {\r\n            governmentOfficerVerified = true;\r\n            task.status = TaskStatus.complete;\r\n            return true;\r\n        // }else if (msg.sender == specialOfficerAddress) {\r\n        //     specialOfficerVerified = true;\r\n        //     task.status = TaskStatus.partiallyVerified;\r\n        // }\r\n        }else {\r\n            revert();\r\n        }\r\n\r\n        // if (governmentOfficerVerified && specialOfficerVerified) {\r\n        //     task.status = TaskStatus.complete;\r\n        // }\r\n    }\r\n\r\n    function withdrawForTask(uint _taskIndex) public onlyContractor returns (bool) {\r\n        if (_taskIndex >= tasks.length) revert();\r\n        Task storage task = tasks[_taskIndex];\r\n\r\n        if (msg.sender != contractorAddress) revert();\r\n        if (task.status != TaskStatus.complete) revert();\r\n\r\n        uint amount = task.amount*(1 ether);\r\n        task.status = TaskStatus.contractorPaid;\r\n        msg.sender.transfer(amount);\r\n        return true;\r\n    }\r\n}\r\n",
  "sourcePath": "/home/vipin/Desktop/tender_SIH/contracts/Contract.sol",
  "compiler": {
    "name": "solc",
    "version": "0.5.12+commit.7709ece9.Emscripten.clang"
  },
  "schemaVersion": "3.0.20",
  "updatedAt": "2020-01-09T09:45:15.460Z",
  "devdoc": {
    "methods": {}
  },
  "userdoc": {
    "methods": {}
  }
}