{
  "contractName": "ContractorRepo",
  "abi": [
    {
      "inputs": [],
      "payable": false,
      "stateMutability": "nonpayable",
      "type": "constructor"
    },
    {
      "constant": true,
      "inputs": [
        {
          "internalType": "address",
          "name": "",
          "type": "address"
        }
      ],
      "name": "walletAddressToNode",
      "outputs": [
        {
          "internalType": "address",
          "name": "",
          "type": "address"
        }
      ],
      "payable": false,
      "stateMutability": "view",
      "type": "function"
    },
    {
      "constant": false,
      "inputs": [
        {
          "internalType": "address",
          "name": "walletAddress",
          "type": "address"
        },
        {
          "internalType": "address",
          "name": "nodeAddress",
          "type": "address"
        }
      ],
      "name": "newContractor",
      "outputs": [
        {
          "internalType": "bool",
          "name": "",
          "type": "bool"
        }
      ],
      "payable": false,
      "stateMutability": "nonpayable",
      "type": "function"
    },
    {
      "constant": false,
      "inputs": [
        {
          "internalType": "address",
          "name": "walletAddress",
          "type": "address"
        },
        {
          "internalType": "address",
          "name": "nodeAddress",
          "type": "address"
        }
      ],
      "name": "mapWalletAddressToNode",
      "outputs": [],
      "payable": false,
      "stateMutability": "nonpayable",
      "type": "function"
    },
    {
      "constant": false,
      "inputs": [
        {
          "internalType": "address",
          "name": "contractorAddress",
          "type": "address"
        },
        {
          "internalType": "address",
          "name": "verifierAddress",
          "type": "address"
        }
      ],
      "name": "verifyContractor",
      "outputs": [],
      "payable": false,
      "stateMutability": "nonpayable",
      "type": "function"
    },
    {
      "constant": false,
      "inputs": [],
      "name": "getVerifiedContractorsCount",
      "outputs": [
        {
          "internalType": "uint256",
          "name": "",
          "type": "uint256"
        }
      ],
      "payable": false,
      "stateMutability": "nonpayable",
      "type": "function"
    },
    {
      "constant": false,
      "inputs": [],
      "name": "getVerifiedContractors",
      "outputs": [
        {
          "internalType": "address[]",
          "name": "",
          "type": "address[]"
        }
      ],
      "payable": false,
      "stateMutability": "nonpayable",
      "type": "function"
    },
    {
      "constant": false,
      "inputs": [
        {
          "internalType": "address",
          "name": "contractorAddress",
          "type": "address"
        }
      ],
      "name": "getVerifier",
      "outputs": [
        {
          "internalType": "address",
          "name": "",
          "type": "address"
        }
      ],
      "payable": false,
      "stateMutability": "nonpayable",
      "type": "function"
    },
    {
      "constant": false,
      "inputs": [],
      "name": "getContractors",
      "outputs": [
        {
          "internalType": "address[]",
          "name": "",
          "type": "address[]"
        }
      ],
      "payable": false,
      "stateMutability": "nonpayable",
      "type": "function"
    },
    {
      "constant": false,
      "inputs": [],
      "name": "getContractorsCount",
      "outputs": [
        {
          "internalType": "uint256",
          "name": "",
          "type": "uint256"
        }
      ],
      "payable": false,
      "stateMutability": "nonpayable",
      "type": "function"
    },
    {
      "constant": false,
      "inputs": [
        {
          "internalType": "address",
          "name": "contractorAddress",
          "type": "address"
        }
      ],
      "name": "getVerificationStatus",
      "outputs": [
        {
          "internalType": "bool",
          "name": "",
          "type": "bool"
        }
      ],
      "payable": false,
      "stateMutability": "nonpayable",
      "type": "function"
    },
    {
      "constant": false,
      "inputs": [
        {
          "internalType": "uint256",
          "name": "index",
          "type": "uint256"
        }
      ],
      "name": "getUnverifiedContractors",
      "outputs": [
        {
          "internalType": "address",
          "name": "",
          "type": "address"
        }
      ],
      "payable": false,
      "stateMutability": "nonpayable",
      "type": "function"
    }
  ],
  "bytecode": "0x608060405234801561001057600080fd5b50610abc806100206000396000f3fe608060405234801561001057600080fd5b50600436106100a95760003560e01c80636c542bc7116100715780636c542bc7146101785780637844adae14610194578063cac9986d146101c4578063d4450661146101e2578063e544a7fd14610200578063f50c75d514610230576100a9565b8063059ce95d146100ae57806310163b67146100de57806323ff85f9146100fc578063492e4475146101185780636103681a14610148575b600080fd5b6100c860048036036100c39190810190610817565b61024e565b6040516100d59190610957565b60405180910390f35b6100e66102b7565b6040516100f39190610972565b60405180910390f35b61011660048036036101119190810190610840565b610345565b005b610132600480360361012d9190810190610840565b6103c7565b60405161013f9190610994565b60405180910390f35b610162600480360361015d9190810190610817565b61049a565b60405161016f9190610994565b60405180910390f35b610192600480360361018d9190810190610840565b6104f0565b005b6101ae60048036036101a9919081019061087c565b610630565b6040516101bb9190610957565b60405180910390f35b6101cc610713565b6040516101d991906109af565b60405180910390f35b6101ea61071f565b6040516101f79190610972565b60405180910390f35b61021a60048036036102159190810190610817565b6107ad565b6040516102279190610957565b60405180910390f35b6102386107e0565b60405161024591906109af565b60405180910390f35b6000600360008373ffffffffffffffffffffffffffffffffffffffff1673ffffffffffffffffffffffffffffffffffffffff16815260200190815260200160002060009054906101000a900473ffffffffffffffffffffffffffffffffffffffff169050919050565b6060600080548060200260200160405190810160405280929190818152602001828054801561033b57602002820191906000526020600020905b8160009054906101000a900473ffffffffffffffffffffffffffffffffffffffff1673ffffffffffffffffffffffffffffffffffffffff16815260200190600101908083116102f1575b5050505050905090565b80600460008473ffffffffffffffffffffffffffffffffffffffff1673ffffffffffffffffffffffffffffffffffffffff16815260200190815260200160002060006101000a81548173ffffffffffffffffffffffffffffffffffffffff021916908373ffffffffffffffffffffffffffffffffffffffff1602179055505050565b6000808290806001815401808255809150509060018203906000526020600020016000909192909190916101000a81548173ffffffffffffffffffffffffffffffffffffffff021916908373ffffffffffffffffffffffffffffffffffffffff160217905550506000600260008473ffffffffffffffffffffffffffffffffffffffff1673ffffffffffffffffffffffffffffffffffffffff16815260200190815260200160002060006101000a81548160ff0219169083151502179055506104908383610345565b6001905092915050565b6000600260008373ffffffffffffffffffffffffffffffffffffffff1673ffffffffffffffffffffffffffffffffffffffff16815260200190815260200160002060009054906101000a900460ff169050919050565b60018290806001815401808255809150509060018203906000526020600020016000909192909190916101000a81548173ffffffffffffffffffffffffffffffffffffffff021916908373ffffffffffffffffffffffffffffffffffffffff160217905550506001600260008473ffffffffffffffffffffffffffffffffffffffff1673ffffffffffffffffffffffffffffffffffffffff16815260200190815260200160002060006101000a81548160ff02191690831515021790555080600360008473ffffffffffffffffffffffffffffffffffffffff1673ffffffffffffffffffffffffffffffffffffffff16815260200190815260200160002060006101000a81548173ffffffffffffffffffffffffffffffffffffffff021916908373ffffffffffffffffffffffffffffffffffffffff1602179055505050565b6000808054905082111561064357600080fd5b6002600080848154811061065357fe5b9060005260206000200160009054906101000a900473ffffffffffffffffffffffffffffffffffffffff1673ffffffffffffffffffffffffffffffffffffffff1673ffffffffffffffffffffffffffffffffffffffff16815260200190815260200160002060009054906101000a900460ff1661070957600082815481106106d757fe5b9060005260206000200160009054906101000a900473ffffffffffffffffffffffffffffffffffffffff16905061070e565b600080fd5b919050565b60008080549050905090565b606060018054806020026020016040519081016040528092919081815260200182805480156107a357602002820191906000526020600020905b8160009054906101000a900473ffffffffffffffffffffffffffffffffffffffff1673ffffffffffffffffffffffffffffffffffffffff1681526020019060010190808311610759575b5050505050905090565b60046020528060005260406000206000915054906101000a900473ffffffffffffffffffffffffffffffffffffffff1681565b6000600180549050905090565b6000813590506107fc81610a4b565b92915050565b60008135905061081181610a62565b92915050565b60006020828403121561082957600080fd5b6000610837848285016107ed565b91505092915050565b6000806040838503121561085357600080fd5b6000610861858286016107ed565b9250506020610872858286016107ed565b9150509250929050565b60006020828403121561088e57600080fd5b600061089c84828501610802565b91505092915050565b60006108b183836108bd565b60208301905092915050565b6108c681610a03565b82525050565b6108d581610a03565b82525050565b60006108e6826109da565b6108f081856109f2565b93506108fb836109ca565b8060005b8381101561092c57815161091388826108a5565b975061091e836109e5565b9250506001810190506108ff565b5085935050505092915050565b61094281610a15565b82525050565b61095181610a41565b82525050565b600060208201905061096c60008301846108cc565b92915050565b6000602082019050818103600083015261098c81846108db565b905092915050565b60006020820190506109a96000830184610939565b92915050565b60006020820190506109c46000830184610948565b92915050565b6000819050602082019050919050565b600081519050919050565b6000602082019050919050565b600082825260208201905092915050565b6000610a0e82610a21565b9050919050565b60008115159050919050565b600073ffffffffffffffffffffffffffffffffffffffff82169050919050565b6000819050919050565b610a5481610a03565b8114610a5f57600080fd5b50565b610a6b81610a41565b8114610a7657600080fd5b5056fea365627a7a72315820ee84eac893377e5bee5db095db619c77bf3df13ac2482f2bdc35b90da55f21d66c6578706572696d656e74616cf564736f6c634300050c0040",
  "source": "pragma solidity ^0.5.11;\npragma experimental ABIEncoderV2;\n\n\ncontract ContractorRepo {\n    address[] contractors; //all contractors verified + unverified\n    address[] verifiedContractors;\n    //address[] unverifiedContractors;\n    \n    mapping (address=>bool) verifiedStatus; //false => unverified, true => verified\n    mapping (address=>address) contratorToVerifier;\n    mapping (address=>address) public walletAddressToNode;\n\n\n    constructor () public {\n\n    }\n\n    function newContractor(address walletAddress, address nodeAddress) public returns (bool) {\n        contractors.push(nodeAddress);\n        verifiedStatus[nodeAddress] = false;\n        mapWalletAddressToNode(walletAddress,nodeAddress);\n        return true;\n    }\n\n    function mapWalletAddressToNode(address walletAddress, address nodeAddress) public {\n        walletAddressToNode[walletAddress] = nodeAddress;\n    }\n\n    function verifyContractor(address contractorAddress, address verifierAddress) public {\n        verifiedContractors.push(contractorAddress);\n        verifiedStatus[contractorAddress] = true;\n        contratorToVerifier[contractorAddress] = verifierAddress;\n    }\n\n    function getVerifiedContractorsCount() public returns (uint256) {\n        return verifiedContractors.length;\n    }\n        \n    function getVerifiedContractors() public returns (address[] memory ) {\n        return verifiedContractors;\n    }\n\n    function getVerifier(address contractorAddress) public returns (address) {\n        return contratorToVerifier[contractorAddress];\n    }\n\n    function getContractors() public returns (address[] memory ) {\n        return contractors;\n    }\n\n    function getContractorsCount() public returns (uint256) {\n        return contractors.length;\n    }\n\n    function getVerificationStatus(address contractorAddress) public returns (bool) {\n        return verifiedStatus[contractorAddress];\n    }\n    \n    function getUnverifiedContractors(uint256 index) public returns (address) {\n        //loop at web3\n        if (index > contractors.length) revert();\n        if (!verifiedStatus[contractors[index]]) {\n            return contractors[index]; \n        }\n        revert();\n    }\n}",
  "sourcePath": "/home/vipin/Desktop/tender_SIH/contracts/ContractorRepo.sol",
  "compiler": {
    "name": "solc",
    "version": "0.5.12+commit.7709ece9.Emscripten.clang"
  },
  "schemaVersion": "3.0.20",
  "updatedAt": "2020-01-09T09:45:15.495Z",
  "devdoc": {
    "methods": {}
  },
  "userdoc": {
    "methods": {}
  }
}