{
  "contractName": "FactoryContract",
  "abi": [
    {
      "inputs": [],
      "payable": false,
      "stateMutability": "nonpayable",
      "type": "constructor"
    },
    {
      "constant": false,
      "inputs": [
        {
          "internalType": "address",
          "name": "govtOfficerAddress",
          "type": "address"
        },
        {
          "internalType": "address",
          "name": "_contractorAddress",
          "type": "address"
        },
        {
          "internalType": "string",
          "name": "_contractName",
          "type": "string"
        },
        {
          "internalType": "string",
          "name": "_tenderId",
          "type": "string"
        },
        {
          "internalType": "uint256",
          "name": "_completionTime",
          "type": "uint256"
        },
        {
          "internalType": "string[]",
          "name": "_constraints",
          "type": "string[]"
        },
        {
          "internalType": "uint256",
          "name": "_finalQuotationAmount",
          "type": "uint256"
        },
        {
          "internalType": "string[]",
          "name": "_taskDescription",
          "type": "string[]"
        },
        {
          "internalType": "uint256[]",
          "name": "_deadlineForEachTask",
          "type": "uint256[]"
        },
        {
          "internalType": "uint256[]",
          "name": "_amountForEachTask",
          "type": "uint256[]"
        },
        {
          "internalType": "uint256",
          "name": "_reviewtime",
          "type": "uint256"
        }
      ],
      "name": "createContract",
      "outputs": [
        {
          "internalType": "address",
          "name": "",
          "type": "address"
        }
      ],
      "payable": true,
      "stateMutability": "payable",
      "type": "function"
    }
  ],
  "bytecode": "0x608060405234801561001057600080fd5b50612730806100206000396000f3fe60806040526004361061001e5760003560e01c8063757d4a0014610023575b600080fd5b61003d600480360361003891908101906103b8565b610053565b60405161004a91906106d6565b60405180910390f35b600080604051610062906101e2565b604051809103906000f08015801561007e573d6000803e3d6000fd5b5090508073ffffffffffffffffffffffffffffffffffffffff1663a83752028e8e8d8d8d6040518663ffffffff1660e01b81526004016100c29594939291906106f1565b600060405180830381600087803b1580156100dc57600080fd5b505af11580156100f0573d6000803e3d6000fd5b505050508073ffffffffffffffffffffffffffffffffffffffff16632e498b908c89898989896040518763ffffffff1660e01b815260040161013796959493929190610752565b600060405180830381600087803b15801561015157600080fd5b505af1158015610165573d6000803e3d6000fd5b5050505060008190806001815401808255809150509060018203906000526020600020016000909192909190916101000a81548173ffffffffffffffffffffffffffffffffffffffff021916908373ffffffffffffffffffffffffffffffffffffffff16021790555050809150509b9a5050505050505050505050565b611ce280610a0c83390190565b6000813590506101fe816109dd565b92915050565b600082601f83011261021557600080fd5b8135610228610223826107fc565b6107cf565b9150818183526020840193506020810190508360005b8381101561026e578135860161025488826102fb565b84526020840193506020830192505060018101905061023e565b5050505092915050565b600082601f83011261028957600080fd5b813561029c61029782610824565b6107cf565b915081818352602084019350602081019050838560208402820111156102c157600080fd5b60005b838110156102f157816102d788826103a3565b8452602084019350602083019250506001810190506102c4565b5050505092915050565b600082601f83011261030c57600080fd5b813561031f61031a8261084c565b6107cf565b9150808252602083016020830185838301111561033b57600080fd5b61034683828461098a565b50505092915050565b600082601f83011261036057600080fd5b813561037361036e82610878565b6107cf565b9150808252602083016020830185838301111561038f57600080fd5b61039a83828461098a565b50505092915050565b6000813590506103b2816109f4565b92915050565b60008060008060008060008060008060006101608c8e0312156103da57600080fd5b60006103e88e828f016101ef565b9b505060206103f98e828f016101ef565b9a505060408c013567ffffffffffffffff81111561041657600080fd5b6104228e828f0161034f565b99505060608c013567ffffffffffffffff81111561043f57600080fd5b61044b8e828f0161034f565b985050608061045c8e828f016103a3565b97505060a08c013567ffffffffffffffff81111561047957600080fd5b6104858e828f01610204565b96505060c06104968e828f016103a3565b95505060e08c013567ffffffffffffffff8111156104b357600080fd5b6104bf8e828f01610204565b9450506101008c013567ffffffffffffffff8111156104dd57600080fd5b6104e98e828f01610278565b9350506101208c013567ffffffffffffffff81111561050757600080fd5b6105138e828f01610278565b9250506101406105258e828f016103a3565b9150509295989b509295989b9093969950565b6000610544838361067f565b905092915050565b600061055883836106b8565b60208301905092915050565b61056d8161094e565b82525050565b600061057e826108c4565b610588818561090a565b93508360208202850161059a856108a4565b8060005b858110156105d657848403895281516105b78582610538565b94506105c2836108f0565b925060208a0199505060018101905061059e565b50829750879550505050505092915050565b60006105f3826108cf565b6105fd818561091b565b9350610608836108b4565b8060005b83811015610639578151610620888261054c565b975061062b836108fd565b92505060018101905061060c565b5085935050505092915050565b6000610651826108e5565b61065b818561093d565b935061066b818560208601610999565b610674816109cc565b840191505092915050565b600061068a826108da565b610694818561092c565b93506106a4818560208601610999565b6106ad816109cc565b840191505092915050565b6106c181610980565b82525050565b6106d081610980565b82525050565b60006020820190506106eb6000830184610564565b92915050565b600060a0820190506107066000830188610564565b6107136020830187610564565b81810360408301526107258186610646565b905061073460608301856106c7565b81810360808301526107468184610573565b90509695505050505050565b600060c082019050818103600083015261076c8189610646565b905061077b60208301886106c7565b818103604083015261078d8187610573565b905081810360608301526107a181866105e8565b905081810360808301526107b581856105e8565b90506107c460a08301846106c7565b979650505050505050565b6000604051905081810181811067ffffffffffffffff821117156107f257600080fd5b8060405250919050565b600067ffffffffffffffff82111561081357600080fd5b602082029050602081019050919050565b600067ffffffffffffffff82111561083b57600080fd5b602082029050602081019050919050565b600067ffffffffffffffff82111561086357600080fd5b601f19601f8301169050602081019050919050565b600067ffffffffffffffff82111561088f57600080fd5b601f19601f8301169050602081019050919050565b6000819050602082019050919050565b6000819050602082019050919050565b600081519050919050565b600081519050919050565b600081519050919050565b600081519050919050565b6000602082019050919050565b6000602082019050919050565b600082825260208201905092915050565b600082825260208201905092915050565b600082825260208201905092915050565b600082825260208201905092915050565b600061095982610960565b9050919050565b600073ffffffffffffffffffffffffffffffffffffffff82169050919050565b6000819050919050565b82818337600083830152505050565b60005b838110156109b757808201518184015260208101905061099c565b838111156109c6576000848401525b50505050565b6000601f19601f8301169050919050565b6109e68161094e565b81146109f157600080fd5b50565b6109fd81610980565b8114610a0857600080fd5b5056fe608060405234801561001057600080fd5b50611cc2806100206000396000f3fe6080604052600436106101145760003560e01c806375d0c0dc116100a0578063c2f218b911610064578063c2f218b9146103b7578063e87870b6146103e7578063f21376af14610412578063f5f5ba721461043d578063f6397fd31461046857610114565b806375d0c0dc146102d95780638a2cfcc4146103045780638d9776721461032f578063a783fd9214610370578063a83752021461039b57610114565b80633e959bc8116100e75780633e959bc8146101de57806344e446a41461020757806345bf2d2c1461023457806346d722e7146102715780635573e3ef1461029c57610114565b8063041f624f1461011957806305b34410146101565780631d65e77e146101815780632e498b90146101c2575b600080fd5b34801561012557600080fd5b50610140600480360361013b91908101906116a8565b610493565b60405161014d9190611877565b60405180910390f35b34801561016257600080fd5b5061016b61054c565b6040516101789190611a23565b60405180910390f35b34801561018d57600080fd5b506101a860048036036101a391908101906116a8565b610552565b6040516101b995949392919061196f565b60405180910390f35b6101dc60048036036101d791908101906115bf565b6106b0565b005b3480156101ea57600080fd5b50610205600480360361020091908101906116a8565b610881565b005b34801561021357600080fd5b5061021c6108de565b60405161022b9392919061192a565b60405180910390f35b34801561024057600080fd5b5061025b600480360361025691908101906116a8565b610a75565b604051610268919061185c565b60405180910390f35b34801561027d57600080fd5b50610286610ad6565b6040516102939190611841565b60405180910390f35b3480156102a857600080fd5b506102c360048036036102be91908101906116a8565b610afb565b6040516102d0919061185c565b60405180910390f35b3480156102e557600080fd5b506102ee610b5b565b6040516102fb9190611877565b60405180910390f35b34801561031057600080fd5b50610319610bf9565b6040516103269190611a23565b60405180910390f35b34801561033b57600080fd5b50610356600480360361035191908101906116a8565b610c03565b6040516103679594939291906119c9565b60405180910390f35b34801561037c57600080fd5b50610385610ceb565b604051610392919061185c565b60405180910390f35b6103b560048036036103b09190810190611518565b610cfe565b005b3480156103c357600080fd5b506103cc610dc2565b6040516103de969594939291906118bb565b60405180910390f35b3480156103f357600080fd5b506103fc610f67565b6040516104099190611a23565b60405180910390f35b34801561041e57600080fd5b50610427610f6d565b6040516104349190611841565b60405180910390f35b34801561044957600080fd5b50610452610f93565b60405161045f9190611899565b60405180910390f35b34801561047457600080fd5b5061047d611035565b60405161048a9190611a23565b60405180910390f35b600581815481106104a057fe5b906000526020600020016000915090508054600181600116156101000203166002900480601f0160208091040260200160405190810160405280929190818152602001828054600181600116156101000203166002900480156105445780601f1061051957610100808354040283529160200191610544565b820191906000526020600020905b81548152906001019060200180831161052757829003601f168201915b505050505081565b60035481565b6060600080600080600a868154811061056757fe5b9060005260206000209060050201600001600a878154811061058557fe5b906000526020600020906005020160010154600a88815481106105a457fe5b906000526020600020906005020160020154600a89815481106105c357fe5b906000526020600020906005020160030160009054906101000a900460ff16600a8a815481106105ef57fe5b906000526020600020906005020160040154848054600181600116156101000203166002900480601f0160208091040260200160405190810160405280929190818152602001828054600181600116156101000203166002900480156106965780601f1061066b57610100808354040283529160200191610696565b820191906000526020600020905b81548152906001019060200180831161067957829003601f168201915b505050505094509450945094509450945091939590929450565b85600890805190602001906106c6929190611042565b5084600681905550600080905060008090505b8551811015610851576000600a8080548091906001016106f991906110c2565b8154811061070357fe5b9060005260206000209060050201905086828151811061071f57fe5b602002602001015181600001908051906020019061073e929190611042565b5085828151811061074b57fe5b6020026020010151816001018190555084828151811061076757fe5b60200260200101518160020181905550670de0b6b3a76400008160020154028301925060008160030160006101000a81548160ff021916908360048111156107ab57fe5b02179055508060096000848152602001908152602001600020600082018160000190805460018160011615610100020316600290046107eb9291906110f4565b5060018201548160010155600282015481600201556003820160009054906101000a900460ff168160030160006101000a81548160ff0219169083600481111561083157fe5b0217905550600482015481600401559050505080806001019150506106d9565b50670de0b6b3a7640000340281111561086957600080fd5b60065481111561087857600080fd5b50505050505050565b600160009054906101000a900473ffffffffffffffffffffffffffffffffffffffff1673ffffffffffffffffffffffffffffffffffffffff163373ffffffffffffffffffffffffffffffffffffffff16146108db57600080fd5b50565b60606000606060086006546005828054600181600116156101000203166002900480601f0160208091040260200160405190810160405280929190818152602001828054600181600116156101000203166002900480156109805780601f1061095557610100808354040283529160200191610980565b820191906000526020600020905b81548152906001019060200180831161096357829003601f168201915b5050505050925080805480602002602001604051908101604052809291908181526020016000905b82821015610a64578382906000526020600020018054600181600116156101000203166002900480601f016020809104026020016040519081016040528092919081815260200182805460018160011615610100020316600290048015610a505780601f10610a2557610100808354040283529160200191610a50565b820191906000526020600020905b815481529060010190602001808311610a3357829003601f168201915b5050505050815260200190600101906109a8565b505050509050925092509250909192565b6000600160009054906101000a900473ffffffffffffffffffffffffffffffffffffffff1673ffffffffffffffffffffffffffffffffffffffff163373ffffffffffffffffffffffffffffffffffffffff1614610ad157600080fd5b919050565b6000809054906101000a900473ffffffffffffffffffffffffffffffffffffffff1681565b60008060009054906101000a900473ffffffffffffffffffffffffffffffffffffffff1673ffffffffffffffffffffffffffffffffffffffff163373ffffffffffffffffffffffffffffffffffffffff1614610b5657600080fd5b919050565b60088054600181600116156101000203166002900480601f016020809104026020016040519081016040528092919081815260200182805460018160011615610100020316600290048015610bf15780601f10610bc657610100808354040283529160200191610bf1565b820191906000526020600020905b815481529060010190602001808311610bd457829003601f168201915b505050505081565b6000600454905090565b600a8181548110610c1057fe5b9060005260206000209060050201600091509050806000018054600181600116156101000203166002900480601f016020809104026020016040519081016040528092919081815260200182805460018160011615610100020316600290048015610cbc5780601f10610c9157610100808354040283529160200191610cbc565b820191906000526020600020905b815481529060010190602001808311610c9f57829003601f168201915b5050505050908060010154908060020154908060030160009054906101000a900460ff16908060040154905085565b600760009054906101000a900460ff1681565b846000806101000a81548173ffffffffffffffffffffffffffffffffffffffff021916908373ffffffffffffffffffffffffffffffffffffffff16021790555083600160006101000a81548173ffffffffffffffffffffffffffffffffffffffff021916908373ffffffffffffffffffffffffffffffffffffffff1602179055508260029080519060200190610d95929190611042565b508060059080519060200190610dac92919061117b565b5042600381905550816004819055505050505050565b6060600080606060008060086000809054906101000a900473ffffffffffffffffffffffffffffffffffffffff16600160009054906101000a900473ffffffffffffffffffffffffffffffffffffffff166002600354600454858054600181600116156101000203166002900480601f016020809104026020016040519081016040528092919081815260200182805460018160011615610100020316600290048015610eb05780601f10610e8557610100808354040283529160200191610eb0565b820191906000526020600020905b815481529060010190602001808311610e9357829003601f168201915b50505050509550828054600181600116156101000203166002900480601f016020809104026020016040519081016040528092919081815260200182805460018160011615610100020316600290048015610f4c5780601f10610f2157610100808354040283529160200191610f4c565b820191906000526020600020905b815481529060010190602001808311610f2f57829003601f168201915b50505050509250955095509550955095509550909192939495565b60045481565b600160009054906101000a900473ffffffffffffffffffffffffffffffffffffffff1681565b606060088054600181600116156101000203166002900480601f01602080910402602001604051908101604052809291908181526020018280546001816001161561010002031660029004801561102b5780601f106110005761010080835404028352916020019161102b565b820191906000526020600020905b81548152906001019060200180831161100e57829003601f168201915b5050505050905090565b6000600a80549050905090565b828054600181600116156101000203166002900490600052602060002090601f016020900481019282601f1061108357805160ff19168380011785556110b1565b828001600101855582156110b1579182015b828111156110b0578251825591602001919060010190611095565b5b5090506110be91906111db565b5090565b8154818355818111156110ef576005028160050283600052602060002091820191016110ee9190611200565b5b505050565b828054600181600116156101000203166002900490600052602060002090601f016020900481019282601f1061112d578054855561116a565b8280016001018555821561116a57600052602060002091601f016020900482015b8281111561116957825482559160010191906001019061114e565b5b50905061117791906111db565b5090565b8280548282559060005260206000209081019282156111ca579160200282015b828111156111c95782518290805190602001906111b992919061125b565b509160200191906001019061119b565b5b5090506111d791906112db565b5090565b6111fd91905b808211156111f95760008160009055506001016111e1565b5090565b90565b61125891905b80821115611254576000808201600061121f9190611307565b600182016000905560028201600090556003820160006101000a81549060ff0219169055600482016000905550600501611206565b5090565b90565b828054600181600116156101000203166002900490600052602060002090601f016020900481019282601f1061129c57805160ff19168380011785556112ca565b828001600101855582156112ca579182015b828111156112c95782518255916020019190600101906112ae565b5b5090506112d791906111db565b5090565b61130491905b8082111561130057600081816112f79190611307565b506001016112e1565b5090565b90565b50805460018160011615610100020316600290046000825580601f1061132d575061134c565b601f01602090049060005260206000209081019061134b91906111db565b5b50565b60008135905061135e81611c51565b92915050565b600082601f83011261137557600080fd5b813561138861138382611a6b565b611a3e565b9150818183526020840193506020810190508360005b838110156113ce57813586016113b4888261145b565b84526020840193506020830192505060018101905061139e565b5050505092915050565b600082601f8301126113e957600080fd5b81356113fc6113f782611a93565b611a3e565b9150818183526020840193506020810190508385602084028201111561142157600080fd5b60005b8381101561145157816114378882611503565b845260208401935060208301925050600181019050611424565b5050505092915050565b600082601f83011261146c57600080fd5b813561147f61147a82611abb565b611a3e565b9150808252602083016020830185838301111561149b57600080fd5b6114a6838284611bf1565b50505092915050565b600082601f8301126114c057600080fd5b81356114d36114ce82611ae7565b611a3e565b915080825260208301602083018583830111156114ef57600080fd5b6114fa838284611bf1565b50505092915050565b60008135905061151281611c68565b92915050565b600080600080600060a0868803121561153057600080fd5b600061153e8882890161134f565b955050602061154f8882890161134f565b945050604086013567ffffffffffffffff81111561156c57600080fd5b611578888289016114af565b935050606061158988828901611503565b925050608086013567ffffffffffffffff8111156115a657600080fd5b6115b288828901611364565b9150509295509295909350565b60008060008060008060c087890312156115d857600080fd5b600087013567ffffffffffffffff8111156115f257600080fd5b6115fe89828a016114af565b965050602061160f89828a01611503565b955050604087013567ffffffffffffffff81111561162c57600080fd5b61163889828a01611364565b945050606087013567ffffffffffffffff81111561165557600080fd5b61166189828a016113d8565b935050608087013567ffffffffffffffff81111561167e57600080fd5b61168a89828a016113d8565b92505060a061169b89828a01611503565b9150509295509295509295565b6000602082840312156116ba57600080fd5b60006116c884828501611503565b91505092915050565b60006116dd83836117c0565b905092915050565b6116ee81611b84565b82525050565b60006116ff82611b23565b6117098185611b51565b93508360208202850161171b85611b13565b8060005b85811015611757578484038952815161173885826116d1565b945061174383611b44565b925060208a0199505060018101905061171f565b50829750879550505050505092915050565b61177281611b96565b82525050565b61178181611bdf565b82525050565b600061179282611b39565b61179c8185611b73565b93506117ac818560208601611c00565b6117b581611c33565b840191505092915050565b60006117cb82611b2e565b6117d58185611b62565b93506117e5818560208601611c00565b6117ee81611c33565b840191505092915050565b600061180482611b2e565b61180e8185611b73565b935061181e818560208601611c00565b61182781611c33565b840191505092915050565b61183b81611bd5565b82525050565b600060208201905061185660008301846116e5565b92915050565b60006020820190506118716000830184611769565b92915050565b6000602082019050818103600083015261189181846117f9565b905092915050565b600060208201905081810360008301526118b38184611787565b905092915050565b600060c08201905081810360008301526118d58189611787565b90506118e460208301886116e5565b6118f160408301876116e5565b81810360608301526119038186611787565b90506119126080830185611832565b61191f60a0830184611832565b979650505050505050565b600060608201905081810360008301526119448186611787565b90506119536020830185611832565b818103604083015261196581846116f4565b9050949350505050565b600060a08201905081810360008301526119898188611787565b90506119986020830187611832565b6119a56040830186611832565b6119b26060830185611778565b6119bf6080830184611832565b9695505050505050565b600060a08201905081810360008301526119e381886117f9565b90506119f26020830187611832565b6119ff6040830186611832565b611a0c6060830185611778565b611a196080830184611832565b9695505050505050565b6000602082019050611a386000830184611832565b92915050565b6000604051905081810181811067ffffffffffffffff82111715611a6157600080fd5b8060405250919050565b600067ffffffffffffffff821115611a8257600080fd5b602082029050602081019050919050565b600067ffffffffffffffff821115611aaa57600080fd5b602082029050602081019050919050565b600067ffffffffffffffff821115611ad257600080fd5b601f19601f8301169050602081019050919050565b600067ffffffffffffffff821115611afe57600080fd5b601f19601f8301169050602081019050919050565b6000819050602082019050919050565b600081519050919050565b600081519050919050565b600081519050919050565b6000602082019050919050565b600082825260208201905092915050565b600082825260208201905092915050565b600082825260208201905092915050565b6000611b8f82611bb5565b9050919050565b60008115159050919050565b6000819050611bb082611c44565b919050565b600073ffffffffffffffffffffffffffffffffffffffff82169050919050565b6000819050919050565b6000611bea82611ba2565b9050919050565b82818337600083830152505050565b60005b83811015611c1e578082015181840152602081019050611c03565b83811115611c2d576000848401525b50505050565b6000601f19601f8301169050919050565b60058110611c4e57fe5b50565b611c5a81611b84565b8114611c6557600080fd5b50565b611c7181611bd5565b8114611c7c57600080fd5b5056fea365627a7a7231582015cc1290bb6e4777a4c8aef3e1b20a73b3e9b0986b582e0c3d78075514d1d9cd6c6578706572696d656e74616cf564736f6c634300050c0040a365627a7a72315820af47b6cbcfbda329777afcd829147d2a79be66dd97e682ca8b529e4e98b9c19b6c6578706572696d656e74616cf564736f6c634300050c0040",
  "source": "pragma solidity ^0.5.11;\npragma experimental ABIEncoderV2;\n\nimport \"./Contract.sol\";\n\n\ncontract FactoryContract {\n    address[] allContracts;\n\n    constructor () public {\n    }\n\n    function createContract(address govtOfficerAddress,\n        address _contractorAddress, string memory _contractName, string memory _tenderId, \n        uint _completionTime, \n        string[] memory _constraints, \n        uint _finalQuotationAmount,\n        string[] memory _taskDescription, \n        uint[] memory _deadlineForEachTask, \n        uint[] memory _amountForEachTask, \n        uint _reviewtime) public payable returns (address) {\n        \n        Contract newContract = new Contract();\n        \n        newContract.setContractBasic(govtOfficerAddress, \n        _contractorAddress, \n        _tenderId,\n        _completionTime,\n        _constraints\n        );\n\n        newContract.setContractAdvanced(_contractName, \n        _finalQuotationAmount,\n        _taskDescription, \n        _deadlineForEachTask, \n        _amountForEachTask, \n        _reviewtime);\n\n        allContracts.push(address(newContract));\n        return address(newContract);\n    }\n}",
  "sourcePath": "/home/vipin/Desktop/tender_SIH/contracts/FactoryContract.sol",
  "compiler": {
    "name": "solc",
    "version": "0.5.12+commit.7709ece9.Emscripten.clang"
  },
  "schemaVersion": "3.0.20",
  "updatedAt": "2020-01-09T09:45:15.503Z",
  "devdoc": {
    "methods": {}
  },
  "userdoc": {
    "methods": {}
  }
}