{
  "contractName": "FactoryContractor",
  "abi": [
    {
      "inputs": [],
      "payable": false,
      "stateMutability": "nonpayable",
      "type": "constructor"
    },
    {
      "constant": false,
      "inputs": [
        {
          "internalType": "address",
          "name": "_walletAddress",
          "type": "address"
        },
        {
          "internalType": "string",
          "name": "_email",
          "type": "string"
        },
        {
          "internalType": "string",
          "name": "_name",
          "type": "string"
        },
        {
          "internalType": "string",
          "name": "_phoneNumber",
          "type": "string"
        },
        {
          "internalType": "string",
          "name": "_panNumber",
          "type": "string"
        },
        {
          "internalType": "string",
          "name": "_gstNumber",
          "type": "string"
        }
      ],
      "name": "registerNewContractor",
      "outputs": [
        {
          "internalType": "address",
          "name": "",
          "type": "address"
        }
      ],
      "payable": false,
      "stateMutability": "nonpayable",
      "type": "function"
    }
  ],
  "bytecode": "0x608060405234801561001057600080fd5b5061135b806100206000396000f3fe608060405234801561001057600080fd5b506004361061002b5760003560e01c80634a782bfa14610030575b600080fd5b610365600480360360c081101561004657600080fd5b81019080803573ffffffffffffffffffffffffffffffffffffffff1690602001909291908035906020019064010000000081111561008357600080fd5b82018360208201111561009557600080fd5b803590602001918460018302840111640100000000831117156100b757600080fd5b91908080601f016020809104026020016040519081016040528093929190818152602001838380828437600081840152601f19601f8201169050808301925050505050505091929192908035906020019064010000000081111561011a57600080fd5b82018360208201111561012c57600080fd5b8035906020019184600183028401116401000000008311171561014e57600080fd5b91908080601f016020809104026020016040519081016040528093929190818152602001838380828437600081840152601f19601f820116905080830192505050505050509192919290803590602001906401000000008111156101b157600080fd5b8201836020820111156101c357600080fd5b803590602001918460018302840111640100000000831117156101e557600080fd5b91908080601f016020809104026020016040519081016040528093929190818152602001838380828437600081840152601f19601f8201169050808301925050505050505091929192908035906020019064010000000081111561024857600080fd5b82018360208201111561025a57600080fd5b8035906020019184600183028401116401000000008311171561027c57600080fd5b91908080601f016020809104026020016040519081016040528093929190818152602001838380828437600081840152601f19601f820116905080830192505050505050509192919290803590602001906401000000008111156102df57600080fd5b8201836020820111156102f157600080fd5b8035906020019184600183028401116401000000008311171561031357600080fd5b91908080601f016020809104026020016040519081016040528093929190818152602001838380828437600081840152601f19601f8201169050808301925050505050505091929192905050506103a7565b604051808273ffffffffffffffffffffffffffffffffffffffff1673ffffffffffffffffffffffffffffffffffffffff16815260200191505060405180910390f35b6000806040516103b690610701565b604051809103906000f0801580156103d2573d6000803e3d6000fd5b5090508073ffffffffffffffffffffffffffffffffffffffff1663dfeb3cf88989898989896040518763ffffffff1660e01b8152600401808773ffffffffffffffffffffffffffffffffffffffff1673ffffffffffffffffffffffffffffffffffffffff168152602001806020018060200180602001806020018060200186810386528b818151815260200191508051906020019080838360005b8381101561048857808201518184015260208101905061046d565b50505050905090810190601f1680156104b55780820380516001836020036101000a031916815260200191505b5086810385528a818151815260200191508051906020019080838360005b838110156104ee5780820151818401526020810190506104d3565b50505050905090810190601f16801561051b5780820380516001836020036101000a031916815260200191505b50868103845289818151815260200191508051906020019080838360005b83811015610554578082015181840152602081019050610539565b50505050905090810190601f1680156105815780820380516001836020036101000a031916815260200191505b50868103835288818151815260200191508051906020019080838360005b838110156105ba57808201518184015260208101905061059f565b50505050905090810190601f1680156105e75780820380516001836020036101000a031916815260200191505b50868103825287818151815260200191508051906020019080838360005b83811015610620578082015181840152602081019050610605565b50505050905090810190601f16801561064d5780820380516001836020036101000a031916815260200191505b509b505050505050505050505050600060405180830381600087803b15801561067557600080fd5b505af1158015610689573d6000803e3d6000fd5b5050505060008190806001815401808255809150509060018203906000526020600020016000909192909190916101000a81548173ffffffffffffffffffffffffffffffffffffffff021916908373ffffffffffffffffffffffffffffffffffffffff16021790555050809150509695505050505050565b610c188061070f8339019056fe608060405234801561001057600080fd5b50610bf8806100206000396000f3fe608060405234801561001057600080fd5b50600436106100b45760003560e01c8063c007175f11610071578063c007175f146101a1578063c3a2a93a146101bd578063dfeb3cf8146101db578063e0124633146101f7578063e494015714610213578063ea86abc314610243576100b4565b8063125716d6146100b95780631ad86bf2146100e957806327340f84146100f3578063534f9c531461011157806356810be714610141578063791d508914610171575b600080fd5b6100d360048036036100ce91908101906108c4565b610273565b6040516100e09190610aa4565b60405180910390f35b6100f16102c9565b005b6100fb6102e6565b6040516101089190610a82565b60405180910390f35b61012b600480360361012691908101906108c4565b610374565b6040516101389190610aa4565b60405180910390f35b61015b600480360361015691908101906108c4565b610394565b6040516101689190610aa4565b60405180910390f35b61018b600480360361018691908101906108c4565b6103b4565b6040516101989190610aa4565b60405180910390f35b6101bb60048036036101b691908101906108c4565b61040a565b005b6101c5610465565b6040516101d29190610a82565b60405180910390f35b6101f560048036036101f091908101906108ed565b6104f3565b005b610211600480360361020c91908101906108c4565b6105c9565b005b61022d600480360361022891908101906108c4565b610624565b60405161023a9190610aa4565b60405180910390f35b61025d600480360361025891908101906108c4565b6106ed565b60405161026a9190610aa4565b60405180910390f35b6000600a60008373ffffffffffffffffffffffffffffffffffffffff1673ffffffffffffffffffffffffffffffffffffffff16815260200190815260200160002060009054906101000a900460ff169050919050565b6001600660006101000a81548160ff021916908315150217905550565b6060600780548060200260200160405190810160405280929190818152602001828054801561036a57602002820191906000526020600020905b8160009054906101000a900473ffffffffffffffffffffffffffffffffffffffff1673ffffffffffffffffffffffffffffffffffffffff1681526020019060010190808311610320575b5050505050905090565b600a6020528060005260406000206000915054906101000a900460ff1681565b60086020528060005260406000206000915054906101000a900460ff1681565b6000600860008373ffffffffffffffffffffffffffffffffffffffff1673ffffffffffffffffffffffffffffffffffffffff16815260200190815260200160002060009054906101000a900460ff169050919050565b6000600a60008373ffffffffffffffffffffffffffffffffffffffff1673ffffffffffffffffffffffffffffffffffffffff16815260200190815260200160002060006101000a81548160ff02191690831515021790555050565b606060098054806020026020016040519081016040528092919081815260200182805480156104e957602002820191906000526020600020905b8160009054906101000a900473ffffffffffffffffffffffffffffffffffffffff1673ffffffffffffffffffffffffffffffffffffffff168152602001906001019080831161049f575b5050505050905090565b856000806101000a81548173ffffffffffffffffffffffffffffffffffffffff021916908373ffffffffffffffffffffffffffffffffffffffff16021790555083600190805190602001906105499291906107b6565b5084600290805190602001906105609291906107b6565b5082600390805190602001906105779291906107b6565b50816004908051906020019061058e9291906107b6565b5080600590805190602001906105a59291906107b6565b506000600660006101000a81548160ff021916908315150217905550505050505050565b6001600860008373ffffffffffffffffffffffffffffffffffffffff1673ffffffffffffffffffffffffffffffffffffffff16815260200190815260200160002060006101000a81548160ff02191690831515021790555050565b600060078290806001815401808255809150509060018203906000526020600020016000909192909190916101000a81548173ffffffffffffffffffffffffffffffffffffffff021916908373ffffffffffffffffffffffffffffffffffffffff160217905550506000600860008473ffffffffffffffffffffffffffffffffffffffff1673ffffffffffffffffffffffffffffffffffffffff16815260200190815260200160002060006101000a81548160ff02191690831515021790555060019050919050565b600060098290806001815401808255809150509060018203906000526020600020016000909192909190916101000a81548173ffffffffffffffffffffffffffffffffffffffff021916908373ffffffffffffffffffffffffffffffffffffffff160217905550506001600a60008473ffffffffffffffffffffffffffffffffffffffff1673ffffffffffffffffffffffffffffffffffffffff16815260200190815260200160002060006101000a81548160ff02191690831515021790555060019050919050565b828054600181600116156101000203166002900490600052602060002090601f016020900481019282601f106107f757805160ff1916838001178555610825565b82800160010185558215610825579182015b82811115610824578251825591602001919060010190610809565b5b5090506108329190610836565b5090565b61085891905b8082111561085457600081600090555060010161083c565b5090565b90565b60008135905061086a81610b9e565b92915050565b600082601f83011261088157600080fd5b813561089461088f82610aec565b610abf565b915080825260208301602083018583830111156108b057600080fd5b6108bb838284610b8f565b50505092915050565b6000602082840312156108d657600080fd5b60006108e48482850161085b565b91505092915050565b60008060008060008060c0878903121561090657600080fd5b600061091489828a0161085b565b965050602087013567ffffffffffffffff81111561093157600080fd5b61093d89828a01610870565b955050604087013567ffffffffffffffff81111561095a57600080fd5b61096689828a01610870565b945050606087013567ffffffffffffffff81111561098357600080fd5b61098f89828a01610870565b935050608087013567ffffffffffffffff8111156109ac57600080fd5b6109b889828a01610870565b92505060a087013567ffffffffffffffff8111156109d557600080fd5b6109e189828a01610870565b9150509295509295509295565b60006109fa8383610a06565b60208301905092915050565b610a0f81610b51565b82525050565b6000610a2082610b28565b610a2a8185610b40565b9350610a3583610b18565b8060005b83811015610a66578151610a4d88826109ee565b9750610a5883610b33565b925050600181019050610a39565b5085935050505092915050565b610a7c81610b63565b82525050565b60006020820190508181036000830152610a9c8184610a15565b905092915050565b6000602082019050610ab96000830184610a73565b92915050565b6000604051905081810181811067ffffffffffffffff82111715610ae257600080fd5b8060405250919050565b600067ffffffffffffffff821115610b0357600080fd5b601f19601f8301169050602081019050919050565b6000819050602082019050919050565b600081519050919050565b6000602082019050919050565b600082825260208201905092915050565b6000610b5c82610b6f565b9050919050565b60008115159050919050565b600073ffffffffffffffffffffffffffffffffffffffff82169050919050565b82818337600083830152505050565b610ba781610b51565b8114610bb257600080fd5b5056fea365627a7a723158202004b9900ea4becc59a4fd00f4bece7c18fc6255e2b96371f2acec467db8e41c6c6578706572696d656e74616cf564736f6c634300050c0040a265627a7a72315820ddc06edbea1457f902439554ba060607b95831a43d8af200099954f0cf3b613a64736f6c634300050c0032",
  "source": "pragma solidity ^0.5.11;\n\nimport \"./Contractor.sol\";\n\ncontract FactoryContractor {\n    address[] allContractors;\n\n    constructor () public {\n\n    }\n    \n    //----do not use---- adds the new contract to same byte code--useless shit.\n    function registerNewContractor(address _walletAddress, string memory _email, string memory _name,\n    string memory _phoneNumber, string memory _panNumber, string memory _gstNumber) public returns (address) {\n        Contractor contractor = new Contractor();\n        contractor.setContractor(_walletAddress, _email, _name,\n        _phoneNumber, _panNumber, _gstNumber);\n        allContractors.push(address(contractor));\n        return address(contractor);\n    }\n}",
  "sourcePath": "/home/vipin/Desktop/tender_SIH/contracts/FactoryContractor.sol",
  "compiler": {
    "name": "solc",
    "version": "0.5.12+commit.7709ece9.Emscripten.clang"
  },
  "schemaVersion": "3.0.20",
  "updatedAt": "2020-01-09T09:45:15.509Z",
  "devdoc": {
    "methods": {}
  },
  "userdoc": {
    "methods": {}
  }
}