{
  "contractName": "GovernmentOfficer",
  "abi": [
    {
      "inputs": [],
      "payable": false,
      "stateMutability": "nonpayable",
      "type": "constructor"
    },
    {
      "constant": true,
      "inputs": [
        {
          "internalType": "address",
          "name": "",
          "type": "address"
        }
      ],
      "name": "contractStatus",
      "outputs": [
        {
          "internalType": "bool",
          "name": "",
          "type": "bool"
        }
      ],
      "payable": false,
      "stateMutability": "view",
      "type": "function"
    },
    {
      "constant": true,
      "inputs": [
        {
          "internalType": "uint256",
          "name": "",
          "type": "uint256"
        }
      ],
      "name": "contracts",
      "outputs": [
        {
          "internalType": "address",
          "name": "",
          "type": "address"
        }
      ],
      "payable": false,
      "stateMutability": "view",
      "type": "function"
    },
    {
      "constant": true,
      "inputs": [],
      "name": "email",
      "outputs": [
        {
          "internalType": "string",
          "name": "",
          "type": "string"
        }
      ],
      "payable": false,
      "stateMutability": "view",
      "type": "function"
    },
    {
      "constant": true,
      "inputs": [],
      "name": "employeeId",
      "outputs": [
        {
          "internalType": "string",
          "name": "",
          "type": "string"
        }
      ],
      "payable": false,
      "stateMutability": "view",
      "type": "function"
    },
    {
      "constant": true,
      "inputs": [
        {
          "internalType": "uint256",
          "name": "",
          "type": "uint256"
        }
      ],
      "name": "expiredTenders",
      "outputs": [
        {
          "internalType": "address",
          "name": "",
          "type": "address"
        }
      ],
      "payable": false,
      "stateMutability": "view",
      "type": "function"
    },
    {
      "constant": true,
      "inputs": [],
      "name": "name",
      "outputs": [
        {
          "internalType": "string",
          "name": "",
          "type": "string"
        }
      ],
      "payable": false,
      "stateMutability": "view",
      "type": "function"
    },
    {
      "constant": true,
      "inputs": [
        {
          "internalType": "uint256",
          "name": "",
          "type": "uint256"
        }
      ],
      "name": "pastContracts",
      "outputs": [
        {
          "internalType": "address",
          "name": "",
          "type": "address"
        }
      ],
      "payable": false,
      "stateMutability": "view",
      "type": "function"
    },
    {
      "constant": true,
      "inputs": [
        {
          "internalType": "uint256",
          "name": "",
          "type": "uint256"
        }
      ],
      "name": "pastTenders",
      "outputs": [
        {
          "internalType": "address",
          "name": "",
          "type": "address"
        }
      ],
      "payable": false,
      "stateMutability": "view",
      "type": "function"
    },
    {
      "constant": true,
      "inputs": [],
      "name": "phoneNumber",
      "outputs": [
        {
          "internalType": "string",
          "name": "",
          "type": "string"
        }
      ],
      "payable": false,
      "stateMutability": "view",
      "type": "function"
    },
    {
      "constant": true,
      "inputs": [
        {
          "internalType": "address",
          "name": "",
          "type": "address"
        }
      ],
      "name": "tenderToContract",
      "outputs": [
        {
          "internalType": "address",
          "name": "",
          "type": "address"
        }
      ],
      "payable": false,
      "stateMutability": "view",
      "type": "function"
    },
    {
      "constant": true,
      "inputs": [
        {
          "internalType": "uint256",
          "name": "",
          "type": "uint256"
        }
      ],
      "name": "tenders",
      "outputs": [
        {
          "internalType": "address",
          "name": "",
          "type": "address"
        }
      ],
      "payable": false,
      "stateMutability": "view",
      "type": "function"
    },
    {
      "constant": true,
      "inputs": [],
      "name": "walletAddress",
      "outputs": [
        {
          "internalType": "address",
          "name": "",
          "type": "address"
        }
      ],
      "payable": false,
      "stateMutability": "view",
      "type": "function"
    },
    {
      "constant": false,
      "inputs": [
        {
          "internalType": "address",
          "name": "_walletAddress",
          "type": "address"
        },
        {
          "internalType": "string",
          "name": "_email",
          "type": "string"
        },
        {
          "internalType": "string",
          "name": "_name",
          "type": "string"
        },
        {
          "internalType": "string",
          "name": "_phoneNumber",
          "type": "string"
        },
        {
          "internalType": "string",
          "name": "_employeeId",
          "type": "string"
        }
      ],
      "name": "setGovernmentOfficer",
      "outputs": [],
      "payable": false,
      "stateMutability": "nonpayable",
      "type": "function"
    },
    {
      "constant": true,
      "inputs": [],
      "name": "getMyContracts",
      "outputs": [
        {
          "internalType": "address[]",
          "name": "",
          "type": "address[]"
        }
      ],
      "payable": false,
      "stateMutability": "view",
      "type": "function"
    },
    {
      "constant": true,
      "inputs": [],
      "name": "getPastContracts",
      "outputs": [
        {
          "internalType": "address[]",
          "name": "",
          "type": "address[]"
        }
      ],
      "payable": false,
      "stateMutability": "view",
      "type": "function"
    },
    {
      "constant": false,
      "inputs": [
        {
          "internalType": "address",
          "name": "contractAddress",
          "type": "address"
        }
      ],
      "name": "markContractCompleted",
      "outputs": [
        {
          "internalType": "bool",
          "name": "",
          "type": "bool"
        }
      ],
      "payable": false,
      "stateMutability": "nonpayable",
      "type": "function"
    },
    {
      "constant": false,
      "inputs": [
        {
          "internalType": "address",
          "name": "contractAddress",
          "type": "address"
        }
      ],
      "name": "addToMyContracts",
      "outputs": [
        {
          "internalType": "address",
          "name": "",
          "type": "address"
        }
      ],
      "payable": false,
      "stateMutability": "nonpayable",
      "type": "function"
    },
    {
      "constant": false,
      "inputs": [
        {
          "internalType": "address",
          "name": "tenderAddress",
          "type": "address"
        }
      ],
      "name": "addToMyTenders",
      "outputs": [
        {
          "internalType": "address",
          "name": "",
          "type": "address"
        }
      ],
      "payable": false,
      "stateMutability": "nonpayable",
      "type": "function"
    },
    {
      "constant": true,
      "inputs": [],
      "name": "getMyTenders",
      "outputs": [
        {
          "internalType": "address[]",
          "name": "",
          "type": "address[]"
        }
      ],
      "payable": false,
      "stateMutability": "view",
      "type": "function"
    },
    {
      "constant": true,
      "inputs": [],
      "name": "getPastTenders",
      "outputs": [
        {
          "internalType": "address[]",
          "name": "",
          "type": "address[]"
        }
      ],
      "payable": false,
      "stateMutability": "view",
      "type": "function"
    },
    {
      "constant": false,
      "inputs": [
        {
          "internalType": "address",
          "name": "tenderAddress",
          "type": "address"
        }
      ],
      "name": "updateTenderToExpired",
      "outputs": [
        {
          "internalType": "bool",
          "name": "",
          "type": "bool"
        }
      ],
      "payable": false,
      "stateMutability": "nonpayable",
      "type": "function"
    },
    {
      "constant": true,
      "inputs": [],
      "name": "getExpiredTenders",
      "outputs": [
        {
          "internalType": "address[]",
          "name": "",
          "type": "address[]"
        }
      ],
      "payable": false,
      "stateMutability": "view",
      "type": "function"
    },
    {
      "constant": false,
      "inputs": [
        {
          "internalType": "address",
          "name": "tenderAddress",
          "type": "address"
        },
        {
          "internalType": "address",
          "name": "contractAddress",
          "type": "address"
        }
      ],
      "name": "updateTenderToContract",
      "outputs": [
        {
          "internalType": "bool",
          "name": "",
          "type": "bool"
        }
      ],
      "payable": false,
      "stateMutability": "nonpayable",
      "type": "function"
    },
    {
      "constant": false,
      "inputs": [],
      "name": "updateOfficerVerifiedStatus",
      "outputs": [],
      "payable": false,
      "stateMutability": "nonpayable",
      "type": "function"
    }
  ],
  "bytecode": "0x608060405234801561001057600080fd5b506118b0806100206000396000f3fe608060405234801561001057600080fd5b50600436106101585760003560e01c806371750db6116100c3578063b808fad41161007c578063b808fad414610405578063c1fb28ec14610423578063c81bde1514610453578063c900b1f814610471578063d1964172146104a1578063e7b73493146104d157610158565b806371750db61461032f578063747f33801461034b578063820e93f51461036957806384ab30a5146103875780639370f3c2146103a5578063aa8ed410146103d557610158565b8063474da79a11610115578063474da79a14610245578063534f9c531461027557806353ff87ac146102a557806360415df0146102c357806366a0a6d9146102e15780636ad5b3ea1461031157610158565b806306fdde031461015d57806316f4f3041461017b5780631ad86bf2146101ab57806329fe9095146101b5578063423d4f80146101e5578063465e1def14610215575b600080fd5b6101656104ef565b60405161017291906116d4565b60405180910390f35b61019560048036036101909190810190611577565b61058d565b6040516101a2919061167c565b60405180910390f35b6101b36105c9565b005b6101cf60048036036101ca919081019061143b565b6105e6565b6040516101dc919061167c565b60405180910390f35b6101ff60048036036101fa9190810190611464565b610653565b60405161020c91906116b9565b60405180910390f35b61022f600480360361022a9190810190611577565b610909565b60405161023c919061167c565b60405180910390f35b61025f600480360361025a9190810190611577565b610945565b60405161026c919061167c565b60405180910390f35b61028f600480360361028a919081019061143b565b610981565b60405161029c91906116b9565b60405180910390f35b6102ad6109a1565b6040516102ba9190611697565b60405180910390f35b6102cb610a2f565b6040516102d89190611697565b60405180910390f35b6102fb60048036036102f69190810190611577565b610abd565b604051610308919061167c565b60405180910390f35b610319610af9565b604051610326919061167c565b60405180910390f35b610349600480360361034491908101906114a0565b610b1e565b005b610353610bdc565b60405161036091906116d4565b60405180910390f35b610371610c7a565b60405161037e91906116d4565b60405180910390f35b61038f610d18565b60405161039c91906116d4565b60405180910390f35b6103bf60048036036103ba9190810190611577565b610db6565b6040516103cc919061167c565b60405180910390f35b6103ef60048036036103ea919081019061143b565b610df2565b6040516103fc91906116b9565b60405180910390f35b61040d610f8c565b60405161041a9190611697565b60405180910390f35b61043d6004803603610438919081019061143b565b61101a565b60405161044a919061167c565b60405180910390f35b61045b61104d565b6040516104689190611697565b60405180910390f35b61048b6004803603610486919081019061143b565b6110db565b60405161049891906116b9565b60405180910390f35b6104bb60048036036104b6919081019061143b565b61121d565b6040516104c8919061167c565b60405180910390f35b6104d961128a565b6040516104e69190611697565b60405180910390f35b60038054600181600116156101000203166002900480601f0160208091040260200160405190810160405280929190818152602001828054600181600116156101000203166002900480156105855780601f1061055a57610100808354040283529160200191610585565b820191906000526020600020905b81548152906001019060200180831161056857829003601f168201915b505050505081565b6007818154811061059a57fe5b906000526020600020016000915054906101000a900473ffffffffffffffffffffffffffffffffffffffff1681565b6001600560006101000a81548160ff021916908315150217905550565b600060068290806001815401808255809150509060018203906000526020600020016000909192909190916101000a81548173ffffffffffffffffffffffffffffffffffffffff021916908373ffffffffffffffffffffffffffffffffffffffff16021790555050919050565b600080600090505b6006805490508110156108fd578373ffffffffffffffffffffffffffffffffffffffff166008828154811061068c57fe5b9060005260206000200160009054906101000a900473ffffffffffffffffffffffffffffffffffffffff1673ffffffffffffffffffffffffffffffffffffffff1614156108f05760078490806001815401808255809150509060018203906000526020600020016000909192909190916101000a81548173ffffffffffffffffffffffffffffffffffffffff021916908373ffffffffffffffffffffffffffffffffffffffff1602179055505082600c60006008848154811061074b57fe5b9060005260206000200160009054906101000a900473ffffffffffffffffffffffffffffffffffffffff1673ffffffffffffffffffffffffffffffffffffffff1673ffffffffffffffffffffffffffffffffffffffff16815260200190815260200160002060006101000a81548173ffffffffffffffffffffffffffffffffffffffff021916908373ffffffffffffffffffffffffffffffffffffffff16021790555060098390806001815401808255809150509060018203906000526020600020016000909192909190916101000a81548173ffffffffffffffffffffffffffffffffffffffff021916908373ffffffffffffffffffffffffffffffffffffffff160217905550506000600b60008573ffffffffffffffffffffffffffffffffffffffff1673ffffffffffffffffffffffffffffffffffffffff16815260200190815260200160002060006101000a81548160ff021916908315150217905550600881815481106108b957fe5b9060005260206000200160006101000a81549073ffffffffffffffffffffffffffffffffffffffff02191690556001915050610903565b808060010191505061065b565b50600090505b92915050565b6006818154811061091657fe5b906000526020600020016000915054906101000a900473ffffffffffffffffffffffffffffffffffffffff1681565b6009818154811061095257fe5b906000526020600020016000915054906101000a900473ffffffffffffffffffffffffffffffffffffffff1681565b600b6020528060005260406000206000915054906101000a900460ff1681565b6060600a805480602002602001604051908101604052809291908181526020018280548015610a2557602002820191906000526020600020905b8160009054906101000a900473ffffffffffffffffffffffffffffffffffffffff1673ffffffffffffffffffffffffffffffffffffffff16815260200190600101908083116109db575b5050505050905090565b60606008805480602002602001604051908101604052809291908181526020018280548015610ab357602002820191906000526020600020905b8160009054906101000a900473ffffffffffffffffffffffffffffffffffffffff1673ffffffffffffffffffffffffffffffffffffffff1681526020019060010190808311610a69575b5050505050905090565b600a8181548110610aca57fe5b906000526020600020016000915054906101000a900473ffffffffffffffffffffffffffffffffffffffff1681565b6000809054906101000a900473ffffffffffffffffffffffffffffffffffffffff1681565b846000806101000a81548173ffffffffffffffffffffffffffffffffffffffff021916908373ffffffffffffffffffffffffffffffffffffffff1602179055508360019080519060200190610b74929190611318565b508160029080519060200190610b8b929190611318565b508260039080519060200190610ba2929190611318565b508060049080519060200190610bb9929190611318565b506000600560006101000a81548160ff0219169083151502179055505050505050565b60028054600181600116156101000203166002900480601f016020809104026020016040519081016040528092919081815260200182805460018160011615610100020316600290048015610c725780601f10610c4757610100808354040283529160200191610c72565b820191906000526020600020905b815481529060010190602001808311610c5557829003601f168201915b505050505081565b60018054600181600116156101000203166002900480601f016020809104026020016040519081016040528092919081815260200182805460018160011615610100020316600290048015610d105780601f10610ce557610100808354040283529160200191610d10565b820191906000526020600020905b815481529060010190602001808311610cf357829003601f168201915b505050505081565b60048054600181600116156101000203166002900480601f016020809104026020016040519081016040528092919081815260200182805460018160011615610100020316600290048015610dae5780601f10610d8357610100808354040283529160200191610dae565b820191906000526020600020905b815481529060010190602001808311610d9157829003601f168201915b505050505081565b60088181548110610dc357fe5b906000526020600020016000915054906101000a900473ffffffffffffffffffffffffffffffffffffffff1681565b600080600090505b600980549050811015610f81578273ffffffffffffffffffffffffffffffffffffffff1660098281548110610e2b57fe5b9060005260206000200160009054906101000a900473ffffffffffffffffffffffffffffffffffffffff1673ffffffffffffffffffffffffffffffffffffffff161415610f7457600a8390806001815401808255809150509060018203906000526020600020016000909192909190916101000a81548173ffffffffffffffffffffffffffffffffffffffff021916908373ffffffffffffffffffffffffffffffffffffffff160217905550506001600b60008573ffffffffffffffffffffffffffffffffffffffff1673ffffffffffffffffffffffffffffffffffffffff16815260200190815260200160002060006101000a81548160ff02191690831515021790555060098181548110610f3d57fe5b9060005260206000200160006101000a81549073ffffffffffffffffffffffffffffffffffffffff02191690556001915050610f87565b8080600101915050610dfa565b50600090505b919050565b6060600780548060200260200160405190810160405280929190818152602001828054801561101057602002820191906000526020600020905b8160009054906101000a900473ffffffffffffffffffffffffffffffffffffffff1673ffffffffffffffffffffffffffffffffffffffff1681526020019060010190808311610fc6575b5050505050905090565b600c6020528060005260406000206000915054906101000a900473ffffffffffffffffffffffffffffffffffffffff1681565b606060098054806020026020016040519081016040528092919081815260200182805480156110d157602002820191906000526020600020905b8160009054906101000a900473ffffffffffffffffffffffffffffffffffffffff1673ffffffffffffffffffffffffffffffffffffffff1681526020019060010190808311611087575b5050505050905090565b600080600090505b600680549050811015611212578273ffffffffffffffffffffffffffffffffffffffff166006828154811061111457fe5b9060005260206000200160009054906101000a900473ffffffffffffffffffffffffffffffffffffffff1673ffffffffffffffffffffffffffffffffffffffff1614156112055760088390806001815401808255809150509060018203906000526020600020016000909192909190916101000a81548173ffffffffffffffffffffffffffffffffffffffff021916908373ffffffffffffffffffffffffffffffffffffffff16021790555050600681815481106111ce57fe5b9060005260206000200160006101000a81549073ffffffffffffffffffffffffffffffffffffffff02191690556001915050611218565b80806001019150506110e3565b50600090505b919050565b600060098290806001815401808255809150509060018203906000526020600020016000909192909190916101000a81548173ffffffffffffffffffffffffffffffffffffffff021916908373ffffffffffffffffffffffffffffffffffffffff16021790555050919050565b6060600680548060200260200160405190810160405280929190818152602001828054801561130e57602002820191906000526020600020905b8160009054906101000a900473ffffffffffffffffffffffffffffffffffffffff1673ffffffffffffffffffffffffffffffffffffffff16815260200190600101908083116112c4575b5050505050905090565b828054600181600116156101000203166002900490600052602060002090601f016020900481019282601f1061135957805160ff1916838001178555611387565b82800160010185558215611387579182015b8281111561138657825182559160200191906001019061136b565b5b5090506113949190611398565b5090565b6113ba91905b808211156113b657600081600090555060010161139e565b5090565b90565b6000813590506113cc8161183f565b92915050565b600082601f8301126113e357600080fd5b81356113f66113f182611723565b6116f6565b9150808252602083016020830185838301111561141257600080fd5b61141d8382846117ec565b50505092915050565b60008135905061143581611856565b92915050565b60006020828403121561144d57600080fd5b600061145b848285016113bd565b91505092915050565b6000806040838503121561147757600080fd5b6000611485858286016113bd565b9250506020611496858286016113bd565b9150509250929050565b600080600080600060a086880312156114b857600080fd5b60006114c6888289016113bd565b955050602086013567ffffffffffffffff8111156114e357600080fd5b6114ef888289016113d2565b945050604086013567ffffffffffffffff81111561150c57600080fd5b611518888289016113d2565b935050606086013567ffffffffffffffff81111561153557600080fd5b611541888289016113d2565b925050608086013567ffffffffffffffff81111561155e57600080fd5b61156a888289016113d2565b9150509295509295909350565b60006020828403121561158957600080fd5b600061159784828501611426565b91505092915050565b60006115ac83836115b8565b60208301905092915050565b6115c1816117a4565b82525050565b6115d0816117a4565b82525050565b60006115e18261175f565b6115eb8185611782565b93506115f68361174f565b8060005b8381101561162757815161160e88826115a0565b975061161983611775565b9250506001810190506115fa565b5085935050505092915050565b61163d816117b6565b82525050565b600061164e8261176a565b6116588185611793565b93506116688185602086016117fb565b6116718161182e565b840191505092915050565b600060208201905061169160008301846115c7565b92915050565b600060208201905081810360008301526116b181846115d6565b905092915050565b60006020820190506116ce6000830184611634565b92915050565b600060208201905081810360008301526116ee8184611643565b905092915050565b6000604051905081810181811067ffffffffffffffff8211171561171957600080fd5b8060405250919050565b600067ffffffffffffffff82111561173a57600080fd5b601f19601f8301169050602081019050919050565b6000819050602082019050919050565b600081519050919050565b600081519050919050565b6000602082019050919050565b600082825260208201905092915050565b600082825260208201905092915050565b60006117af826117c2565b9050919050565b60008115159050919050565b600073ffffffffffffffffffffffffffffffffffffffff82169050919050565b6000819050919050565b82818337600083830152505050565b60005b838110156118195780820151818401526020810190506117fe565b83811115611828576000848401525b50505050565b6000601f19601f8301169050919050565b611848816117a4565b811461185357600080fd5b50565b61185f816117e2565b811461186a57600080fd5b5056fea365627a7a72315820c1d3795d4ad959a7f2d4b312abdb925c16705c70bc398d78eee0945270e5134e6c6578706572696d656e74616cf564736f6c634300050c0040",
  "source": "pragma solidity ^0.5.11;\npragma experimental ABIEncoderV2;\n\n\ncontract GovernmentOfficer {\n    \n    address public walletAddress;\n    string public email;\n    string public phoneNumber;\n    string public name;\n    string public employeeId; \n    bool isVerified;\n\n    address[] public tenders;\n    address[] public pastTenders;\n    address[] public expiredTenders;\n\n    address[] public contracts;\n    address[] public pastContracts;\n\n    mapping (address=>bool) public contractStatus; //true => past, false => active\n    mapping (address=>address) public tenderToContract;\n\n    constructor () public {\n\n    }\n\n    function setGovernmentOfficer(address _walletAddress, string memory _email, string memory _name, \n    string memory _phoneNumber, string memory _employeeId) public {\n        walletAddress = _walletAddress;\n        email = _email;\n        phoneNumber = _phoneNumber;\n        name = _name;\n        employeeId = _employeeId;\n        isVerified = false;\n    }\n\n    function getMyContracts() public view returns (address[] memory ) {\n        return contracts;\n    }\n\n    function getPastContracts() public view returns (address[] memory ) {\n        return pastContracts;\n    }\n\n    function markContractCompleted (address contractAddress) public returns (bool) {\n        //remove from contracts and add to pastContracts\n        for (uint256 i=0; i < contracts.length; i++) {\n            if (contracts[i] == contractAddress) {\n                pastContracts.push(contractAddress);\n                contractStatus[contractAddress] = true;\n                delete contracts[i];\n                return true;\n            }\n        }\n        return false;\n    }\n\n    function addToMyContracts(address contractAddress) public returns (address) {\n        //call when createContract button is clicked => web3\n        contracts.push(contractAddress);\n    }\n\n    function addToMyTenders(address tenderAddress) public returns (address) {\n        //look at web3 for address \n        tenders.push(tenderAddress);\n    }\n\n    function getMyTenders() public view returns (address[] memory) {\n        return tenders;\n    }\n\n    function getPastTenders() public view returns (address[] memory) {\n        return pastTenders;\n    }\n\n    function updateTenderToExpired(address tenderAddress) \n    public returns (bool) {\n        //removeFromMyTender and add to past Tenders\n        for (uint i=0; i < tenders.length; i++) {\n            if (tenders[i] == tenderAddress) {\n                expiredTenders.push(tenderAddress);\n                delete tenders[i];\n                return true;\n            }\n        }\n        return false;\n    }\n\n    function getExpiredTenders() public view returns (address[] memory) {\n        return expiredTenders;\n    }\n\n    function updateTenderToContract(address tenderAddress, address contractAddress) \n    public returns (bool) {\n        //removeFromMyTender and add to past Tenders\n        for (uint i=0; i < tenders.length; i++) {\n            if (expiredTenders[i] == tenderAddress) {\n                pastTenders.push(tenderAddress);\n                tenderToContract[expiredTenders[i]] = contractAddress;\n                contracts.push(contractAddress);\n                contractStatus[contractAddress] = false;\n                delete expiredTenders[i];\n                return true;\n            }\n        }\n        return false;\n    }\n\n    function updateOfficerVerifiedStatus() public {\n        isVerified = true;\n    }\n\n}",
  "sourcePath": "/home/vipin/Desktop/tender_SIH/contracts/GovernmentOfficer.sol",
  "compiler": {
    "name": "solc",
    "version": "0.5.12+commit.7709ece9.Emscripten.clang"
  },
  "schemaVersion": "3.0.20",
  "updatedAt": "2020-01-09T09:45:15.523Z",
  "devdoc": {
    "methods": {}
  },
  "userdoc": {
    "methods": {}
  }
}