{
  "contractName": "GovernmentOfficerRepo",
  "abi": [
    {
      "inputs": [],
      "payable": false,
      "stateMutability": "nonpayable",
      "type": "constructor"
    },
    {
      "constant": true,
      "inputs": [
        {
          "internalType": "address",
          "name": "",
          "type": "address"
        }
      ],
      "name": "officerToVerifier",
      "outputs": [
        {
          "internalType": "address",
          "name": "",
          "type": "address"
        }
      ],
      "payable": false,
      "stateMutability": "view",
      "type": "function"
    },
    {
      "constant": true,
      "inputs": [
        {
          "internalType": "uint256",
          "name": "",
          "type": "uint256"
        }
      ],
      "name": "officers",
      "outputs": [
        {
          "internalType": "address",
          "name": "",
          "type": "address"
        }
      ],
      "payable": false,
      "stateMutability": "view",
      "type": "function"
    },
    {
      "constant": true,
      "inputs": [
        {
          "internalType": "uint256",
          "name": "",
          "type": "uint256"
        }
      ],
      "name": "verifiedOfficers",
      "outputs": [
        {
          "internalType": "address",
          "name": "",
          "type": "address"
        }
      ],
      "payable": false,
      "stateMutability": "view",
      "type": "function"
    },
    {
      "constant": true,
      "inputs": [
        {
          "internalType": "address",
          "name": "",
          "type": "address"
        }
      ],
      "name": "verifiedStatus",
      "outputs": [
        {
          "internalType": "bool",
          "name": "",
          "type": "bool"
        }
      ],
      "payable": false,
      "stateMutability": "view",
      "type": "function"
    },
    {
      "constant": true,
      "inputs": [
        {
          "internalType": "address",
          "name": "",
          "type": "address"
        }
      ],
      "name": "walletAddressToNode",
      "outputs": [
        {
          "internalType": "address",
          "name": "",
          "type": "address"
        }
      ],
      "payable": false,
      "stateMutability": "view",
      "type": "function"
    },
    {
      "constant": false,
      "inputs": [
        {
          "internalType": "address",
          "name": "walletAddress",
          "type": "address"
        },
        {
          "internalType": "address",
          "name": "nodeAddress",
          "type": "address"
        }
      ],
      "name": "newOfficer",
      "outputs": [
        {
          "internalType": "bool",
          "name": "",
          "type": "bool"
        }
      ],
      "payable": false,
      "stateMutability": "nonpayable",
      "type": "function"
    },
    {
      "constant": false,
      "inputs": [
        {
          "internalType": "address",
          "name": "walletAddress",
          "type": "address"
        },
        {
          "internalType": "address",
          "name": "nodeAddress",
          "type": "address"
        }
      ],
      "name": "mapWalletAddressToNode",
      "outputs": [],
      "payable": false,
      "stateMutability": "nonpayable",
      "type": "function"
    },
    {
      "constant": true,
      "inputs": [
        {
          "internalType": "address",
          "name": "walletAddress",
          "type": "address"
        }
      ],
      "name": "getNodeAddress",
      "outputs": [
        {
          "internalType": "address",
          "name": "",
          "type": "address"
        }
      ],
      "payable": false,
      "stateMutability": "view",
      "type": "function"
    },
    {
      "constant": false,
      "inputs": [
        {
          "internalType": "address",
          "name": "officerAddress",
          "type": "address"
        },
        {
          "internalType": "address",
          "name": "verifierAdress",
          "type": "address"
        }
      ],
      "name": "verifyOfficer",
      "outputs": [],
      "payable": false,
      "stateMutability": "nonpayable",
      "type": "function"
    },
    {
      "constant": true,
      "inputs": [],
      "name": "getOfficersCount",
      "outputs": [
        {
          "internalType": "uint256",
          "name": "",
          "type": "uint256"
        }
      ],
      "payable": false,
      "stateMutability": "view",
      "type": "function"
    },
    {
      "constant": true,
      "inputs": [],
      "name": "getVerifiedOfficersCount",
      "outputs": [
        {
          "internalType": "uint256",
          "name": "",
          "type": "uint256"
        }
      ],
      "payable": false,
      "stateMutability": "view",
      "type": "function"
    },
    {
      "constant": true,
      "inputs": [],
      "name": "getOfficers",
      "outputs": [
        {
          "internalType": "address[]",
          "name": "",
          "type": "address[]"
        }
      ],
      "payable": false,
      "stateMutability": "view",
      "type": "function"
    },
    {
      "constant": true,
      "inputs": [],
      "name": "getVerifiedOfficers",
      "outputs": [
        {
          "internalType": "address[]",
          "name": "",
          "type": "address[]"
        }
      ],
      "payable": false,
      "stateMutability": "view",
      "type": "function"
    },
    {
      "constant": true,
      "inputs": [
        {
          "internalType": "address",
          "name": "officerAddress",
          "type": "address"
        }
      ],
      "name": "getVerifier",
      "outputs": [
        {
          "internalType": "address",
          "name": "",
          "type": "address"
        }
      ],
      "payable": false,
      "stateMutability": "view",
      "type": "function"
    },
    {
      "constant": true,
      "inputs": [
        {
          "internalType": "address",
          "name": "officerAddress",
          "type": "address"
        }
      ],
      "name": "getVerifiedStatus",
      "outputs": [
        {
          "internalType": "bool",
          "name": "",
          "type": "bool"
        }
      ],
      "payable": false,
      "stateMutability": "view",
      "type": "function"
    },
    {
      "constant": true,
      "inputs": [
        {
          "internalType": "uint256",
          "name": "index",
          "type": "uint256"
        }
      ],
      "name": "getUnverifiedOfficers",
      "outputs": [
        {
          "internalType": "address",
          "name": "",
          "type": "address"
        }
      ],
      "payable": false,
      "stateMutability": "view",
      "type": "function"
    }
  ],
  "bytecode": "0x608060405234801561001057600080fd5b50610d37806100206000396000f3fe608060405234801561001057600080fd5b50600436106101005760003560e01c80635306fa8b11610097578063e4974ca911610066578063e4974ca9146102e7578063e544a7fd14610305578063ec54b7f914610335578063fac0d0901461036557610100565b80635306fa8b146102395780636b291d9f146102695780636f6f772114610299578063d6de1dcb146102b757610100565b80631142f021116100d35780631142f0211461018d57806311f217c7146101bd5780631dac6a30146101ed57806323ff85f91461021d57610100565b8063059ce95d146101055780630cc7bf9c146101355780630f7151dc1461015357806310ffb5dc14610171575b600080fd5b61011f600480360361011a9190810190610a92565b610395565b60405161012c9190610bd2565b60405180910390f35b61013d6103fe565b60405161014a9190610c2a565b60405180910390f35b61015b61040b565b6040516101689190610bed565b60405180910390f35b61018b60048036036101869190810190610abb565b610499565b005b6101a760048036036101a29190810190610af7565b6105d9565b6040516101b49190610bd2565b60405180910390f35b6101d760048036036101d29190810190610a92565b6106bc565b6040516101e49190610bd2565b60405180910390f35b61020760048036036102029190810190610af7565b610725565b6040516102149190610bd2565b60405180910390f35b61023760048036036102329190810190610abb565b610761565b005b610253600480360361024e9190810190610a92565b6107e3565b6040516102609190610c0f565b60405180910390f35b610283600480360361027e9190810190610af7565b610839565b6040516102909190610bd2565b60405180910390f35b6102a1610875565b6040516102ae9190610bed565b60405180910390f35b6102d160048036036102cc9190810190610a92565b610903565b6040516102de9190610bd2565b60405180910390f35b6102ef610936565b6040516102fc9190610c2a565b60405180910390f35b61031f600480360361031a9190810190610a92565b610942565b60405161032c9190610bd2565b60405180910390f35b61034f600480360361034a9190810190610abb565b610975565b60405161035c9190610c0f565b60405180910390f35b61037f600480360361037a9190810190610a92565b610a48565b60405161038c9190610c0f565b60405180910390f35b6000600360008373ffffffffffffffffffffffffffffffffffffffff1673ffffffffffffffffffffffffffffffffffffffff16815260200190815260200160002060009054906101000a900473ffffffffffffffffffffffffffffffffffffffff169050919050565b6000600180549050905090565b6060600080548060200260200160405190810160405280929190818152602001828054801561048f57602002820191906000526020600020905b8160009054906101000a900473ffffffffffffffffffffffffffffffffffffffff1673ffffffffffffffffffffffffffffffffffffffff1681526020019060010190808311610445575b5050505050905090565b60018290806001815401808255809150509060018203906000526020600020016000909192909190916101000a81548173ffffffffffffffffffffffffffffffffffffffff021916908373ffffffffffffffffffffffffffffffffffffffff160217905550506001600260008473ffffffffffffffffffffffffffffffffffffffff1673ffffffffffffffffffffffffffffffffffffffff16815260200190815260200160002060006101000a81548160ff02191690831515021790555080600360008473ffffffffffffffffffffffffffffffffffffffff1673ffffffffffffffffffffffffffffffffffffffff16815260200190815260200160002060006101000a81548173ffffffffffffffffffffffffffffffffffffffff021916908373ffffffffffffffffffffffffffffffffffffffff1602179055505050565b600080805490508211156105ec57600080fd5b600260008084815481106105fc57fe5b9060005260206000200160009054906101000a900473ffffffffffffffffffffffffffffffffffffffff1673ffffffffffffffffffffffffffffffffffffffff1673ffffffffffffffffffffffffffffffffffffffff16815260200190815260200160002060009054906101000a900460ff166106b2576000828154811061068057fe5b9060005260206000200160009054906101000a900473ffffffffffffffffffffffffffffffffffffffff1690506106b7565b600080fd5b919050565b6000600460008373ffffffffffffffffffffffffffffffffffffffff1673ffffffffffffffffffffffffffffffffffffffff16815260200190815260200160002060009054906101000a900473ffffffffffffffffffffffffffffffffffffffff169050919050565b6001818154811061073257fe5b906000526020600020016000915054906101000a900473ffffffffffffffffffffffffffffffffffffffff1681565b80600460008473ffffffffffffffffffffffffffffffffffffffff1673ffffffffffffffffffffffffffffffffffffffff16815260200190815260200160002060006101000a81548173ffffffffffffffffffffffffffffffffffffffff021916908373ffffffffffffffffffffffffffffffffffffffff1602179055505050565b6000600260008373ffffffffffffffffffffffffffffffffffffffff1673ffffffffffffffffffffffffffffffffffffffff16815260200190815260200160002060009054906101000a900460ff169050919050565b6000818154811061084657fe5b906000526020600020016000915054906101000a900473ffffffffffffffffffffffffffffffffffffffff1681565b606060018054806020026020016040519081016040528092919081815260200182805480156108f957602002820191906000526020600020905b8160009054906101000a900473ffffffffffffffffffffffffffffffffffffffff1673ffffffffffffffffffffffffffffffffffffffff16815260200190600101908083116108af575b5050505050905090565b60036020528060005260406000206000915054906101000a900473ffffffffffffffffffffffffffffffffffffffff1681565b60008080549050905090565b60046020528060005260406000206000915054906101000a900473ffffffffffffffffffffffffffffffffffffffff1681565b6000808290806001815401808255809150509060018203906000526020600020016000909192909190916101000a81548173ffffffffffffffffffffffffffffffffffffffff021916908373ffffffffffffffffffffffffffffffffffffffff160217905550506000600260008473ffffffffffffffffffffffffffffffffffffffff1673ffffffffffffffffffffffffffffffffffffffff16815260200190815260200160002060006101000a81548160ff021916908315150217905550610a3e8383610761565b6001905092915050565b60026020528060005260406000206000915054906101000a900460ff1681565b600081359050610a7781610cc6565b92915050565b600081359050610a8c81610cdd565b92915050565b600060208284031215610aa457600080fd5b6000610ab284828501610a68565b91505092915050565b60008060408385031215610ace57600080fd5b6000610adc85828601610a68565b9250506020610aed85828601610a68565b9150509250929050565b600060208284031215610b0957600080fd5b6000610b1784828501610a7d565b91505092915050565b6000610b2c8383610b38565b60208301905092915050565b610b4181610c7e565b82525050565b610b5081610c7e565b82525050565b6000610b6182610c55565b610b6b8185610c6d565b9350610b7683610c45565b8060005b83811015610ba7578151610b8e8882610b20565b9750610b9983610c60565b925050600181019050610b7a565b5085935050505092915050565b610bbd81610c90565b82525050565b610bcc81610cbc565b82525050565b6000602082019050610be76000830184610b47565b92915050565b60006020820190508181036000830152610c078184610b56565b905092915050565b6000602082019050610c246000830184610bb4565b92915050565b6000602082019050610c3f6000830184610bc3565b92915050565b6000819050602082019050919050565b600081519050919050565b6000602082019050919050565b600082825260208201905092915050565b6000610c8982610c9c565b9050919050565b60008115159050919050565b600073ffffffffffffffffffffffffffffffffffffffff82169050919050565b6000819050919050565b610ccf81610c7e565b8114610cda57600080fd5b50565b610ce681610cbc565b8114610cf157600080fd5b5056fea365627a7a723158206dfc28ecde8f05dcad3a7a2116a14c487a7f64941a874b6bdec94fe1ee621ddd6c6578706572696d656e74616cf564736f6c634300050c0040",
  "source": "pragma solidity ^0.5.11;\npragma experimental ABIEncoderV2;\n\n//import \"./GovernmentOfficer.sol\";\n\n\ncontract GovernmentOfficerRepo {\n    address[] public officers; //all officers verified + unverified\n    address[] public verifiedOfficers;\n    mapping (address=>bool) public verifiedStatus; //true=>verified, false => unverified\n    mapping (address=>address) public officerToVerifier;\n    mapping (address=>address) public walletAddressToNode;\n\n\n    constructor () public {\n\n    }\n\n    //----do not use---- adds the new contract to same byte code\n    // function registerOfficer(address _walletAddress, string _email, string _name, \n    // string _phoneNumber, string _employeeId) public returns (address) {\n    //     GovernmentOfficer officer = new GovernmentOfficer();\n    //     officer.setGovernmentOfficer(_walletAddress, _email, _name, \n    //     _phoneNumber, _employeeId);\n    //     this.newOfficer(address(officer));\n    //     return officer;\n    // }\n\n    function newOfficer(address walletAddress, address nodeAddress) public returns (bool) {\n        officers.push(nodeAddress);\n        verifiedStatus[nodeAddress] = false;\n        mapWalletAddressToNode(walletAddress, nodeAddress);\n        return true;\n    }\n    \n    function mapWalletAddressToNode(address walletAddress, address nodeAddress) public {\n        walletAddressToNode[walletAddress] = nodeAddress;\n    }\n\n    function getNodeAddress(address walletAddress) public view returns (address) {\n        return walletAddressToNode[walletAddress];\n    }\n    \n    function verifyOfficer(address officerAddress, address verifierAdress) public {\n        verifiedOfficers.push(officerAddress);\n        verifiedStatus[officerAddress] = true;\n        officerToVerifier[officerAddress] = verifierAdress;\n    }\n    \n    function getOfficersCount() public view returns (uint256) {\n        return officers.length;\n    }\n\n    function getVerifiedOfficersCount() public view returns (uint256) {\n        return verifiedOfficers.length;\n    }\n\n    function getOfficers () public view returns (address[] memory ) {\n        return officers;\n    }\n\n    function getVerifiedOfficers () public view returns (address[] memory ) {\n        return verifiedOfficers;\n    }\n\n    function getVerifier(address officerAddress) public view returns (address) {\n        return officerToVerifier[officerAddress];\n    }\n\n    function getVerifiedStatus(address officerAddress) public view returns (bool) {\n        return verifiedStatus[officerAddress];\n    }\n\n    function getUnverifiedOfficers(uint256 index) public view returns (address) {\n        //loop at web3\n        if (index > officers.length) revert();\n        if (!verifiedStatus[officers[index]]) {\n            return officers[index]; \n        }\n        revert();\n    }\n    \n}",
  "sourcePath": "/home/vipin/Desktop/tender_SIH/contracts/GovernmentOfficerRepo.sol",
  "compiler": {
    "name": "solc",
    "version": "0.5.12+commit.7709ece9.Emscripten.clang"
  },
  "schemaVersion": "3.0.20",
  "updatedAt": "2020-01-09T09:45:15.535Z",
  "devdoc": {
    "methods": {}
  },
  "userdoc": {
    "methods": {}
  }
}