{
  "contractName": "Main",
  "abi": [
    {
      "constant": false,
      "inputs": [],
      "name": "getAllTenders",
      "outputs": [
        {
          "internalType": "address[]",
          "name": "",
          "type": "address[]"
        }
      ],
      "payable": false,
      "stateMutability": "nonpayable",
      "type": "function"
    },
    {
      "constant": false,
      "inputs": [],
      "name": "getAllOngoingContracts",
      "outputs": [
        {
          "internalType": "address[]",
          "name": "",
          "type": "address[]"
        }
      ],
      "payable": false,
      "stateMutability": "nonpayable",
      "type": "function"
    }
  ],
  "bytecode": "0x608060405234801561001057600080fd5b506101d6806100206000396000f3fe608060405234801561001057600080fd5b50600436106100365760003560e01c80632358c0461461003b578063ab0b593714610059575b600080fd5b610043610077565b6040516100509190610106565b60405180910390f35b61006161007c565b60405161006e9190610106565b60405180910390f35b606090565b606090565b600061008d8383610099565b60208301905092915050565b6100a281610161565b82525050565b60006100b382610138565b6100bd8185610150565b93506100c883610128565b8060005b838110156100f95781516100e08882610081565b97506100eb83610143565b9250506001810190506100cc565b5085935050505092915050565b6000602082019050818103600083015261012081846100a8565b905092915050565b6000819050602082019050919050565b600081519050919050565b6000602082019050919050565b600082825260208201905092915050565b600061016c82610173565b9050919050565b600073ffffffffffffffffffffffffffffffffffffffff8216905091905056fea365627a7a72315820c29058963efdc9e522fb1611da97e931fa786837f61edc157a92ee97db0521276c6578706572696d656e74616cf564736f6c634300050c0040",
  "source": "pragma solidity ^0.5.11;\npragma experimental ABIEncoderV2;\n\ncontract Main{\n    \n    function encrypt(address userAddress, string memory role) internal returns (string memory){\n    }\n\n    function decrypt(string memory token) internal returns (address){\n    }\n\n    // comman man => extra fields to fetch\n    function getAllTenders() public returns (address[] memory){\n    }\n\n    function getAllOngoingContracts() public returns (address[] memory){\n    }\n}",
  "sourcePath": "/home/vipin/Desktop/tender_SIH/contracts/Main.sol",
  "compiler": {
    "name": "solc",
    "version": "0.5.12+commit.7709ece9.Emscripten.clang"
  },
  "schemaVersion": "3.0.20",
  "updatedAt": "2020-01-09T09:45:15.543Z",
  "devdoc": {
    "methods": {}
  },
  "userdoc": {
    "methods": {}
  }
}