{
  "contractName": "SpecialOfficer",
  "abi": [
    {
      "inputs": [
        {
          "internalType": "address",
          "name": "_walletAddress",
          "type": "address"
        },
        {
          "internalType": "string",
          "name": "_email",
          "type": "string"
        },
        {
          "internalType": "string",
          "name": "_phoneNumber",
          "type": "string"
        },
        {
          "internalType": "string",
          "name": "_name",
          "type": "string"
        },
        {
          "internalType": "string",
          "name": "_employeeId",
          "type": "string"
        }
      ],
      "payable": false,
      "stateMutability": "nonpayable",
      "type": "constructor"
    },
    {
      "constant": false,
      "inputs": [],
      "name": "getAllOngoingContracts",
      "outputs": [
        {
          "internalType": "address[]",
          "name": "",
          "type": "address[]"
        }
      ],
      "payable": false,
      "stateMutability": "nonpayable",
      "type": "function"
    },
    {
      "constant": false,
      "inputs": [],
      "name": "getAllTenders",
      "outputs": [
        {
          "internalType": "address[]",
          "name": "",
          "type": "address[]"
        }
      ],
      "payable": false,
      "stateMutability": "nonpayable",
      "type": "function"
    },
    {
      "constant": false,
      "inputs": [
        {
          "internalType": "address",
          "name": "userAddress",
          "type": "address"
        },
        {
          "internalType": "string",
          "name": "role",
          "type": "string"
        }
      ],
      "name": "login",
      "outputs": [
        {
          "internalType": "string",
          "name": "",
          "type": "string"
        }
      ],
      "payable": false,
      "stateMutability": "nonpayable",
      "type": "function"
    },
    {
      "constant": false,
      "inputs": [],
      "name": "logout",
      "outputs": [
        {
          "internalType": "bool",
          "name": "",
          "type": "bool"
        }
      ],
      "payable": false,
      "stateMutability": "nonpayable",
      "type": "function"
    }
  ],
  "bytecode": "0x608060405234801561001057600080fd5b50604051610815380380610815833981810160405261003291908101906101e6565b846000806101000a81548173ffffffffffffffffffffffffffffffffffffffff021916908373ffffffffffffffffffffffffffffffffffffffff16021790555083600190805190602001906100889291906100d8565b50826002908051906020019061009f9291906100d8565b5081600390805190602001906100b69291906100d8565b5080600490805190602001906100cd9291906100d8565b505050505050610392565b828054600181600116156101000203166002900490600052602060002090601f016020900481019282601f1061011957805160ff1916838001178555610147565b82800160010185558215610147579182015b8281111561014657825182559160200191906001019061012b565b5b5090506101549190610158565b5090565b61017a91905b8082111561017657600081600090555060010161015e565b5090565b90565b60008151905061018c8161037b565b92915050565b600082601f8301126101a357600080fd5b81516101b66101b1826102ea565b6102bd565b915080825260208301602083018583830111156101d257600080fd5b6101dd838284610348565b50505092915050565b600080600080600060a086880312156101fe57600080fd5b600061020c8882890161017d565b955050602086015167ffffffffffffffff81111561022957600080fd5b61023588828901610192565b945050604086015167ffffffffffffffff81111561025257600080fd5b61025e88828901610192565b935050606086015167ffffffffffffffff81111561027b57600080fd5b61028788828901610192565b925050608086015167ffffffffffffffff8111156102a457600080fd5b6102b088828901610192565b9150509295509295909350565b6000604051905081810181811067ffffffffffffffff821117156102e057600080fd5b8060405250919050565b600067ffffffffffffffff82111561030157600080fd5b601f19601f8301169050602081019050919050565b600061032182610328565b9050919050565b600073ffffffffffffffffffffffffffffffffffffffff82169050919050565b60005b8381101561036657808201518184015260208101905061034b565b83811115610375576000848401525b50505050565b61038481610316565b811461038f57600080fd5b50565b610474806103a16000396000f3fe608060405234801561001057600080fd5b506004361061004c5760003560e01c80631f3c99c3146100515780632358c0461461006f5780632f19d50b1461008d578063ab0b5937146100bd575b600080fd5b6100596100db565b604051610066919061029e565b60405180910390f35b6100776100e0565b604051610084919061027c565b60405180910390f35b6100a760048036036100a2919081019061015b565b6100e5565b6040516100b491906102b9565b60405180910390f35b6100c56100ed565b6040516100d2919061027c565b60405180910390f35b600090565b606090565b606092915050565b606090565b6000813590506101018161041a565b92915050565b600082601f83011261011857600080fd5b813561012b61012682610308565b6102db565b9150808252602083016020830185838301111561014757600080fd5b6101528382846103c7565b50505092915050565b6000806040838503121561016e57600080fd5b600061017c858286016100f2565b925050602083013567ffffffffffffffff81111561019957600080fd5b6101a585828601610107565b9150509250929050565b60006101bb83836101c7565b60208301905092915050565b6101d081610389565b82525050565b60006101e182610344565b6101eb8185610367565b93506101f683610334565b8060005b8381101561022757815161020e88826101af565b97506102198361035a565b9250506001810190506101fa565b5085935050505092915050565b61023d8161039b565b82525050565b600061024e8261034f565b6102588185610378565b93506102688185602086016103d6565b61027181610409565b840191505092915050565b6000602082019050818103600083015261029681846101d6565b905092915050565b60006020820190506102b36000830184610234565b92915050565b600060208201905081810360008301526102d38184610243565b905092915050565b6000604051905081810181811067ffffffffffffffff821117156102fe57600080fd5b8060405250919050565b600067ffffffffffffffff82111561031f57600080fd5b601f19601f8301169050602081019050919050565b6000819050602082019050919050565b600081519050919050565b600081519050919050565b6000602082019050919050565b600082825260208201905092915050565b600082825260208201905092915050565b6000610394826103a7565b9050919050565b60008115159050919050565b600073ffffffffffffffffffffffffffffffffffffffff82169050919050565b82818337600083830152505050565b60005b838110156103f45780820151818401526020810190506103d9565b83811115610403576000848401525b50505050565b6000601f19601f8301169050919050565b61042381610389565b811461042e57600080fd5b5056fea365627a7a72315820694b40586b4c1e7535c06d11e34ad9ed2c7407c92b8d7950b2647f5e8735bf5e6c6578706572696d656e74616cf564736f6c634300050c0040",
  "source": "pragma solidity ^0.5.11;\npragma experimental ABIEncoderV2;\n\nimport \"./Main.sol\";\n\n\ncontract SpecialOfficer is Main {\n    \n    address walletAddress;\n    string email;\n    string phoneNumber;\n    string name;\n    string employeeId; \n\n    constructor (address _walletAddress, string memory _email, string memory _phoneNumber, \n    string memory _name, string memory _employeeId) public {\n        walletAddress = _walletAddress;\n        email = _email;\n        phoneNumber = _phoneNumber;\n        name = _name;\n        employeeId = _employeeId;\n    }\n\n    function login(address userAddress, string memory role) public  returns (string memory) {\n    }\n\n    function logout() public returns (bool) {\n\n    }\n}",
  "sourcePath": "/home/vipin/Desktop/tender_SIH/contracts/SpecialOfficer.sol",
  "compiler": {
    "name": "solc",
    "version": "0.5.12+commit.7709ece9.Emscripten.clang"
  },
  "schemaVersion": "3.0.20",
  "updatedAt": "2020-01-09T09:45:15.557Z",
  "devdoc": {
    "methods": {}
  },
  "userdoc": {
    "methods": {}
  }
}