{
  "contractName": "Tender",
  "abi": [
    {
      "inputs": [],
      "payable": false,
      "stateMutability": "nonpayable",
      "type": "constructor"
    },
    {
      "constant": true,
      "inputs": [
        {
          "internalType": "uint256",
          "name": "",
          "type": "uint256"
        }
      ],
      "name": "allContractorProposals",
      "outputs": [
        {
          "internalType": "address",
          "name": "contractorAddress",
          "type": "address"
        },
        {
          "internalType": "uint256",
          "name": "proposalAmount",
          "type": "uint256"
        },
        {
          "internalType": "enum Tender.ProposalStatus",
          "name": "status",
          "type": "uint8"
        }
      ],
      "payable": false,
      "stateMutability": "view",
      "type": "function"
    },
    {
      "constant": true,
      "inputs": [],
      "name": "bidOpeningDate",
      "outputs": [
        {
          "internalType": "uint256",
          "name": "",
          "type": "uint256"
        }
      ],
      "payable": false,
      "stateMutability": "view",
      "type": "function"
    },
    {
      "constant": true,
      "inputs": [],
      "name": "bidSubmissionClosingDate",
      "outputs": [
        {
          "internalType": "uint256",
          "name": "",
          "type": "uint256"
        }
      ],
      "payable": false,
      "stateMutability": "view",
      "type": "function"
    },
    {
      "constant": true,
      "inputs": [
        {
          "internalType": "uint256",
          "name": "",
          "type": "uint256"
        }
      ],
      "name": "clauses",
      "outputs": [
        {
          "internalType": "string",
          "name": "",
          "type": "string"
        }
      ],
      "payable": false,
      "stateMutability": "view",
      "type": "function"
    },
    {
      "constant": true,
      "inputs": [
        {
          "internalType": "uint256",
          "name": "",
          "type": "uint256"
        }
      ],
      "name": "constraints",
      "outputs": [
        {
          "internalType": "string",
          "name": "",
          "type": "string"
        }
      ],
      "payable": false,
      "stateMutability": "view",
      "type": "function"
    },
    {
      "constant": true,
      "inputs": [],
      "name": "covers",
      "outputs": [
        {
          "internalType": "uint256",
          "name": "",
          "type": "uint256"
        }
      ],
      "payable": false,
      "stateMutability": "view",
      "type": "function"
    },
    {
      "constant": true,
      "inputs": [],
      "name": "governmentOfficerAddress",
      "outputs": [
        {
          "internalType": "address",
          "name": "",
          "type": "address"
        }
      ],
      "payable": false,
      "stateMutability": "view",
      "type": "function"
    },
    {
      "constant": true,
      "inputs": [
        {
          "internalType": "uint256",
          "name": "",
          "type": "uint256"
        }
      ],
      "name": "taskDays",
      "outputs": [
        {
          "internalType": "uint256",
          "name": "",
          "type": "uint256"
        }
      ],
      "payable": false,
      "stateMutability": "view",
      "type": "function"
    },
    {
      "constant": true,
      "inputs": [
        {
          "internalType": "uint256",
          "name": "",
          "type": "uint256"
        }
      ],
      "name": "taskName",
      "outputs": [
        {
          "internalType": "string",
          "name": "",
          "type": "string"
        }
      ],
      "payable": false,
      "stateMutability": "view",
      "type": "function"
    },
    {
      "constant": true,
      "inputs": [
        {
          "internalType": "uint256",
          "name": "",
          "type": "uint256"
        },
        {
          "internalType": "uint256",
          "name": "",
          "type": "uint256"
        }
      ],
      "name": "tempDocuments",
      "outputs": [
        {
          "internalType": "string",
          "name": "",
          "type": "string"
        }
      ],
      "payable": false,
      "stateMutability": "view",
      "type": "function"
    },
    {
      "constant": true,
      "inputs": [
        {
          "internalType": "uint256",
          "name": "",
          "type": "uint256"
        },
        {
          "internalType": "uint256",
          "name": "",
          "type": "uint256"
        }
      ],
      "name": "tempDocuments1",
      "outputs": [
        {
          "internalType": "string",
          "name": "",
          "type": "string"
        }
      ],
      "payable": false,
      "stateMutability": "view",
      "type": "function"
    },
    {
      "constant": true,
      "inputs": [],
      "name": "tenderId",
      "outputs": [
        {
          "internalType": "string",
          "name": "",
          "type": "string"
        }
      ],
      "payable": false,
      "stateMutability": "view",
      "type": "function"
    },
    {
      "constant": true,
      "inputs": [],
      "name": "tenderName",
      "outputs": [
        {
          "internalType": "string",
          "name": "",
          "type": "string"
        }
      ],
      "payable": false,
      "stateMutability": "view",
      "type": "function"
    },
    {
      "constant": true,
      "inputs": [],
      "name": "getTenderName",
      "outputs": [
        {
          "internalType": "string",
          "name": "",
          "type": "string"
        }
      ],
      "payable": false,
      "stateMutability": "view",
      "type": "function"
    },
    {
      "constant": false,
      "inputs": [
        {
          "internalType": "address",
          "name": "_governmentOfficerAddress",
          "type": "address"
        },
        {
          "internalType": "string",
          "name": "_tenderName",
          "type": "string"
        },
        {
          "internalType": "string",
          "name": "_tenderId",
          "type": "string"
        },
        {
          "internalType": "uint256",
          "name": "_bidSubmissionClosingDate",
          "type": "uint256"
        },
        {
          "internalType": "uint256",
          "name": "_bidOpeningDate",
          "type": "uint256"
        },
        {
          "internalType": "uint256",
          "name": "_covers",
          "type": "uint256"
        }
      ],
      "name": "setTenderBasic",
      "outputs": [],
      "payable": false,
      "stateMutability": "nonpayable",
      "type": "function"
    },
    {
      "constant": false,
      "inputs": [
        {
          "internalType": "string[]",
          "name": "_clauses",
          "type": "string[]"
        },
        {
          "internalType": "string[]",
          "name": "_taskName",
          "type": "string[]"
        },
        {
          "internalType": "uint256[]",
          "name": "_taskDays",
          "type": "uint256[]"
        },
        {
          "internalType": "string[]",
          "name": "_constraints",
          "type": "string[]"
        }
      ],
      "name": "setTenderAdvanced",
      "outputs": [],
      "payable": false,
      "stateMutability": "nonpayable",
      "type": "function"
    },
    {
      "constant": true,
      "inputs": [],
      "name": "getTenderBasic",
      "outputs": [
        {
          "internalType": "address",
          "name": "",
          "type": "address"
        },
        {
          "internalType": "string",
          "name": "",
          "type": "string"
        },
        {
          "internalType": "string",
          "name": "",
          "type": "string"
        },
        {
          "internalType": "uint256",
          "name": "",
          "type": "uint256"
        },
        {
          "internalType": "uint256",
          "name": "",
          "type": "uint256"
        },
        {
          "internalType": "uint256",
          "name": "",
          "type": "uint256"
        }
      ],
      "payable": false,
      "stateMutability": "view",
      "type": "function"
    },
    {
      "constant": true,
      "inputs": [],
      "name": "getTenderAdvanced",
      "outputs": [
        {
          "internalType": "string[]",
          "name": "",
          "type": "string[]"
        },
        {
          "internalType": "string[]",
          "name": "",
          "type": "string[]"
        },
        {
          "internalType": "uint256[]",
          "name": "",
          "type": "uint256[]"
        },
        {
          "internalType": "string[]",
          "name": "",
          "type": "string[]"
        }
      ],
      "payable": false,
      "stateMutability": "view",
      "type": "function"
    },
    {
      "constant": false,
      "inputs": [
        {
          "internalType": "address",
          "name": "_contractorAddress",
          "type": "address"
        },
        {
          "internalType": "string[]",
          "name": "_quotationClause",
          "type": "string[]"
        },
        {
          "internalType": "uint256[]",
          "name": "_quotationAmount",
          "type": "uint256[]"
        },
        {
          "internalType": "string[]",
          "name": "_constraintDocuments",
          "type": "string[]"
        }
      ],
      "name": "bid",
      "outputs": [
        {
          "internalType": "bool",
          "name": "",
          "type": "bool"
        }
      ],
      "payable": false,
      "stateMutability": "nonpayable",
      "type": "function"
    },
    {
      "constant": false,
      "inputs": [],
      "name": "getBiddindCloseDate",
      "outputs": [
        {
          "internalType": "uint256",
          "name": "",
          "type": "uint256"
        }
      ],
      "payable": false,
      "stateMutability": "nonpayable",
      "type": "function"
    },
    {
      "constant": true,
      "inputs": [],
      "name": "getProposalCount",
      "outputs": [
        {
          "internalType": "uint256",
          "name": "",
          "type": "uint256"
        }
      ],
      "payable": false,
      "stateMutability": "view",
      "type": "function"
    },
    {
      "constant": false,
      "inputs": [
        {
          "internalType": "uint256",
          "name": "amount",
          "type": "uint256"
        }
      ],
      "name": "setTenderAmount",
      "outputs": [],
      "payable": false,
      "stateMutability": "nonpayable",
      "type": "function"
    },
    {
      "constant": false,
      "inputs": [
        {
          "internalType": "uint256",
          "name": "index",
          "type": "uint256"
        }
      ],
      "name": "getProposalsToVerify",
      "outputs": [
        {
          "internalType": "string[]",
          "name": "",
          "type": "string[]"
        },
        {
          "internalType": "string[][]",
          "name": "",
          "type": "string[][]"
        },
        {
          "internalType": "address",
          "name": "",
          "type": "address"
        }
      ],
      "payable": false,
      "stateMutability": "nonpayable",
      "type": "function"
    },
    {
      "constant": false,
      "inputs": [
        {
          "internalType": "address",
          "name": "contractorAddress",
          "type": "address"
        }
      ],
      "name": "verifyProposal",
      "outputs": [],
      "payable": false,
      "stateMutability": "nonpayable",
      "type": "function"
    },
    {
      "constant": false,
      "inputs": [
        {
          "internalType": "address",
          "name": "contractorAddress",
          "type": "address"
        }
      ],
      "name": "rejectProposal",
      "outputs": [],
      "payable": false,
      "stateMutability": "nonpayable",
      "type": "function"
    },
    {
      "constant": true,
      "inputs": [
        {
          "internalType": "uint256",
          "name": "index",
          "type": "uint256"
        }
      ],
      "name": "getProposal",
      "outputs": [
        {
          "internalType": "address",
          "name": "",
          "type": "address"
        },
        {
          "internalType": "uint256",
          "name": "",
          "type": "uint256"
        },
        {
          "internalType": "string[]",
          "name": "",
          "type": "string[]"
        },
        {
          "internalType": "uint256[]",
          "name": "",
          "type": "uint256[]"
        },
        {
          "internalType": "enum Tender.ProposalStatus",
          "name": "",
          "type": "uint8"
        }
      ],
      "payable": false,
      "stateMutability": "view",
      "type": "function"
    },
    {
      "constant": false,
      "inputs": [
        {
          "internalType": "uint256",
          "name": "index",
          "type": "uint256"
        }
      ],
      "name": "getVerifiedProposals",
      "outputs": [
        {
          "internalType": "string[]",
          "name": "",
          "type": "string[]"
        },
        {
          "internalType": "string[][]",
          "name": "",
          "type": "string[][]"
        },
        {
          "internalType": "address",
          "name": "",
          "type": "address"
        },
        {
          "internalType": "uint256[]",
          "name": "",
          "type": "uint256[]"
        }
      ],
      "payable": false,
      "stateMutability": "nonpayable",
      "type": "function"
    }
  ],
  "bytecode": "0x608060405234801561001057600080fd5b50612e88806100206000396000f3fe608060405234801561001057600080fd5b50600436106101a95760003560e01c80637ca4a879116100f9578063ca6009be11610097578063e959c7b911610071578063e959c7b914610518578063e979c9b814610536578063ec12b19914610568578063fed4a32614610589576101a9565b8063ca6009be146104b0578063cddab28b146104e0578063d706f1c9146104fc576101a9565b8063b3c4c5bd116100d3578063b3c4c5bd14610410578063c08cc02d1461042e578063c76d0ea01461044c578063c7f758a81461047c576101a9565b80637ca4a879146103b857806395121ee1146103d65780639b679bae146103f4576101a9565b8063482a77a6116101665780635644e44c116101405780635644e44c1461030357806356554d82146103335780636ef72763146103565780637376ade214610386576101a9565b8063482a77a6146102875780634a53deb4146102b7578063528e830a146102e7576101a9565b8063041f624f146101ae578063137396e4146101de57806334650fad146101fc57806336e187781461022f578063405889211461024d57806346d722e714610269575b600080fd5b6101c860048036036101c39190810190612565565b6105a7565b6040516101d59190612afa565b60405180910390f35b6101e6610660565b6040516101f39190612b3e565b60405180910390f35b61021660048036036102119190810190612565565b610666565b6040516102269493929190612a24565b60405180910390f35b6102376109e7565b6040516102449190612afa565b60405180910390f35b610267600480360361026291908101906124a2565b610a85565b005b610271610ae7565b60405161027e91906128bd565b60405180910390f35b6102a1600480360361029c9190810190612565565b610b0c565b6040516102ae9190612b3e565b60405180910390f35b6102d160048036036102cc9190810190612565565b610b2d565b6040516102de9190612afa565b60405180910390f35b61030160048036036102fc9190810190612315565b610be6565b005b61031d6004803603610318919081019061233e565b610c4a565b60405161032a9190612adf565b60405180910390f35b61033b610e04565b60405161034d969594939291906128d8565b60405180910390f35b610370600480360361036b919081019061258e565b610f89565b60405161037d9190612afa565b60405180910390f35b6103a0600480360361039b9190810190612565565b611058565b6040516103af939291906129df565b60405180910390f35b6103c0611361565b6040516103cd9190612b3e565b60405180910390f35b6103de611367565b6040516103eb9190612b3e565b60405180910390f35b61040e60048036036104099190810190612565565b611371565b005b610418611394565b6040516104259190612b3e565b60405180910390f35b61043661139a565b6040516104439190612b3e565b60405180910390f35b6104666004803603610461919081019061258e565b6113a7565b6040516104739190612afa565b60405180910390f35b61049660048036036104919190810190612565565b611476565b6040516104a7959493929190612947565b60405180910390f35b6104ca60048036036104c59190810190612565565b61169e565b6040516104d79190612afa565b60405180910390f35b6104fa60048036036104f59190810190612315565b611757565b005b610516600480360361051191908101906123e9565b6117bb565b005b61052061184e565b60405161052d9190612afa565b60405180910390f35b610550600480360361054b9190810190612565565b6118ec565b60405161055f939291906129a8565b60405180910390f35b610570611950565b6040516105809493929190612a7e565b60405180910390f35b610591611c67565b60405161059e9190612b1c565b60405180910390f35b600981815481106105b457fe5b906000526020600020016000915090508054600181600116156101000203166002900480601f0160208091040260200160405190810160405280929190818152602001828054600181600116156101000203166002900480156106585780601f1061062d57610100808354040283529160200191610658565b820191906000526020600020905b81548152906001019060200180831161063b57829003601f168201915b505050505081565b60055481565b60608060006060600060606000600281111561067e57fe5b600b888154811061068b57fe5b906000526020600020906006020160050160009054906101000a900460ff1660028111156106b557fe5b14156107c357600e600b88815481106106ca57fe5b9060005260206000209060060201600401908060018154018082558091505090600182039060005260206000200160009091929091909150908054610710929190611d09565b5050600b878154811061071f57fe5b906000526020600020906006020160000160009054906101000a900473ffffffffffffffffffffffffffffffffffffffff169150600b878154811061076057fe5b90600052602060002090600602016002018054806020026020016040519081016040528092919081815260200182805480156107bb57602002820191906000526020600020905b8154815260200190600101908083116107a7575b505050505090505b6009600e838383805480602002602001604051908101604052809291908181526020016000905b828210156108a6578382906000526020600020018054600181600116156101000203166002900480601f0160208091040260200160405190810160405280929190818152602001828054600181600116156101000203166002900480156108925780601f1061086757610100808354040283529160200191610892565b820191906000526020600020905b81548152906001019060200180831161087557829003601f168201915b5050505050815260200190600101906107ea565b50505050935082805480602002602001604051908101604052809291908181526020016000905b828210156109d057838290600052602060002001805480602002602001604051908101604052809291908181526020016000905b828210156109bd578382906000526020600020018054600181600116156101000203166002900480601f0160208091040260200160405190810160405280929190818152602001828054600181600116156101000203166002900480156109a95780601f1061097e576101008083540402835291602001916109a9565b820191906000526020600020905b81548152906001019060200180831161098c57829003601f168201915b505050505081526020019060010190610901565b50505050815260200190600101906108cd565b505050509250955095509550955050509193509193565b60028054600181600116156101000203166002900480601f016020809104026020016040519081016040528092919081815260200182805460018160011615610100020316600290048015610a7d5780601f10610a5257610100808354040283529160200191610a7d565b820191906000526020600020905b815481529060010190602001808311610a6057829003601f168201915b505050505081565b8360069080519060200190610a9b929190611d79565b508260079080519060200190610ab2929190611d79565b508160089080519060200190610ac9929190611dd9565b508060099080519060200190610ae0929190611d79565b5050505050565b6000809054906101000a900473ffffffffffffffffffffffffffffffffffffffff1681565b60088181548110610b1957fe5b906000526020600020016000915090505481565b60078181548110610b3a57fe5b906000526020600020016000915090508054600181600116156101000203166002900480601f016020809104026020016040519081016040528092919081815260200182805460018160011615610100020316600290048015610bde5780601f10610bb357610100808354040283529160200191610bde565b820191906000526020600020905b815481529060010190602001808311610bc157829003601f168201915b505050505081565b6000600c60008373ffffffffffffffffffffffffffffffffffffffff1673ffffffffffffffffffffffffffffffffffffffff16815260200190815260200160002060006101000a81548160ff02191690836002811115610c4257fe5b021790555050565b600080600b808054809190600101610c629190611e26565b81548110610c6c57fe5b90600052602060002090600602019050858160000160006101000a81548173ffffffffffffffffffffffffffffffffffffffff021916908373ffffffffffffffffffffffffffffffffffffffff16021790555060008090505b8551811015610d7257858181518110610cda57fe5b6020026020010151826001018281548110610cf157fe5b906000526020600020019080519060200190610d0e929190611e58565b50848181518110610d1b57fe5b6020026020010151826002018281548110610d3257fe5b9060005260206000200181905550848181518110610d4c57fe5b602002602001015182600301600082825401925050819055508080600101915050610cc5565b5060008090505b8351811015610dd057838181518110610d8e57fe5b6020026020010151826004018281548110610da557fe5b906000526020600020019080519060200190610dc2929190611e58565b508080600101915050610d79565b5060018160050160006101000a81548160ff02191690836002811115610df257fe5b02179055506001915050949350505050565b600060608060008060008060009054906101000a900473ffffffffffffffffffffffffffffffffffffffff1660016002600354600454600554848054600181600116156101000203166002900480601f016020809104026020016040519081016040528092919081815260200182805460018160011615610100020316600290048015610ed25780601f10610ea757610100808354040283529160200191610ed2565b820191906000526020600020905b815481529060010190602001808311610eb557829003601f168201915b50505050509450838054600181600116156101000203166002900480601f016020809104026020016040519081016040528092919081815260200182805460018160011615610100020316600290048015610f6e5780601f10610f4357610100808354040283529160200191610f6e565b820191906000526020600020905b815481529060010190602001808311610f5157829003601f168201915b50505050509350955095509550955095509550909192939495565b600e8281548110610f9657fe5b906000526020600020018181548110610fab57fe5b90600052602060002001600091509150508054600181600116156101000203166002900480601f0160208091040260200160405190810160405280929190818152602001828054600181600116156101000203166002900480156110505780601f1061102557610100808354040283529160200191611050565b820191906000526020600020905b81548152906001019060200180831161103357829003601f168201915b505050505081565b6060806000806001600281111561106b57fe5b600b868154811061107857fe5b906000526020600020906006020160050160009054906101000a900460ff1660028111156110a257fe5b141561114157600d600b86815481106110b757fe5b90600052602060002090600602016004019080600181540180825580915050906001820390600052602060002001600090919290919091509080546110fd929190611d09565b5050600b858154811061110c57fe5b906000526020600020906006020160000160009054906101000a900473ffffffffffffffffffffffffffffffffffffffff1690505b6009600d8282805480602002602001604051908101604052809291908181526020016000905b82821015611223578382906000526020600020018054600181600116156101000203166002900480601f01602080910402602001604051908101604052809291908181526020018280546001816001161561010002031660029004801561120f5780601f106111e45761010080835404028352916020019161120f565b820191906000526020600020905b8154815290600101906020018083116111f257829003601f168201915b505050505081526020019060010190611167565b50505050925081805480602002602001604051908101604052809291908181526020016000905b8282101561134d57838290600052602060002001805480602002602001604051908101604052809291908181526020016000905b8282101561133a578382906000526020600020018054600181600116156101000203166002900480601f0160208091040260200160405190810160405280929190818152602001828054600181600116156101000203166002900480156113265780601f106112fb57610100808354040283529160200191611326565b820191906000526020600020905b81548152906001019060200180831161130957829003601f168201915b50505050508152602001906001019061127e565b505050508152602001906001019061124a565b505050509150935093509350509193909250565b60035481565b6000600354905090565b6000811415801561138457506000600a54145b156113915780600a819055505b50565b60045481565b6000600b80549050905090565b600d82815481106113b457fe5b9060005260206000200181815481106113c957fe5b90600052602060002001600091509150508054600181600116156101000203166002900480601f01602080910402602001604051908101604052809291908181526020018280546001816001161561010002031660029004801561146e5780601f106114435761010080835404028352916020019161146e565b820191906000526020600020905b81548152906001019060200180831161145157829003601f168201915b505050505081565b6000806060806000600b8054905086111561149057600080fd5b600b868154811061149d57fe5b906000526020600020906006020160000160009054906101000a900473ffffffffffffffffffffffffffffffffffffffff16600b87815481106114dc57fe5b906000526020600020906006020160030154600b88815481106114fb57fe5b9060005260206000209060060201600101600b898154811061151957fe5b9060005260206000209060060201600201600b8a8154811061153757fe5b906000526020600020906006020160050160009054906101000a900460ff1682805480602002602001604051908101604052809291908181526020016000905b82821015611633578382906000526020600020018054600181600116156101000203166002900480601f01602080910402602001604051908101604052809291908181526020018280546001816001161561010002031660029004801561161f5780601f106115f45761010080835404028352916020019161161f565b820191906000526020600020905b81548152906001019060200180831161160257829003601f168201915b505050505081526020019060010190611577565b5050505092508180548060200260200160405190810160405280929190818152602001828054801561168457602002820191906000526020600020905b815481526020019060010190808311611670575b505050505091509450945094509450945091939590929450565b600681815481106116ab57fe5b906000526020600020016000915090508054600181600116156101000203166002900480601f01602080910402602001604051908101604052809291908181526020018280546001816001161561010002031660029004801561174f5780601f106117245761010080835404028352916020019161174f565b820191906000526020600020905b81548152906001019060200180831161173257829003601f168201915b505050505081565b6002600c60008373ffffffffffffffffffffffffffffffffffffffff1673ffffffffffffffffffffffffffffffffffffffff16815260200190815260200160002060006101000a81548160ff021916908360028111156117b357fe5b021790555050565b856000806101000a81548173ffffffffffffffffffffffffffffffffffffffff021916908373ffffffffffffffffffffffffffffffffffffffff1602179055508460019080519060200190611811929190611e58565b508360029080519060200190611828929190611e58565b508260038190555081600481905550806005819055506000600a81905550505050505050565b60018054600181600116156101000203166002900480601f0160208091040260200160405190810160405280929190818152602001828054600181600116156101000203166002900480156118e45780601f106118b9576101008083540402835291602001916118e4565b820191906000526020600020905b8154815290600101906020018083116118c757829003601f168201915b505050505081565b600b81815481106118f957fe5b90600052602060002090600602016000915090508060000160009054906101000a900473ffffffffffffffffffffffffffffffffffffffff16908060030154908060050160009054906101000a900460ff16905083565b606080606080600660076008600983805480602002602001604051908101604052809291908181526020016000905b82821015611a3b578382906000526020600020018054600181600116156101000203166002900480601f016020809104026020016040519081016040528092919081815260200182805460018160011615610100020316600290048015611a275780601f106119fc57610100808354040283529160200191611a27565b820191906000526020600020905b815481529060010190602001808311611a0a57829003601f168201915b50505050508152602001906001019061197f565b50505050935082805480602002602001604051908101604052809291908181526020016000905b82821015611b1e578382906000526020600020018054600181600116156101000203166002900480601f016020809104026020016040519081016040528092919081815260200182805460018160011615610100020316600290048015611b0a5780601f10611adf57610100808354040283529160200191611b0a565b820191906000526020600020905b815481529060010190602001808311611aed57829003601f168201915b505050505081526020019060010190611a62565b50505050925081805480602002602001604051908101604052809291908181526020018280548015611b6f57602002820191906000526020600020905b815481526020019060010190808311611b5b575b5050505050915080805480602002602001604051908101604052809291908181526020016000905b82821015611c53578382906000526020600020018054600181600116156101000203166002900480601f016020809104026020016040519081016040528092919081815260200182805460018160011615610100020316600290048015611c3f5780601f10611c1457610100808354040283529160200191611c3f565b820191906000526020600020905b815481529060010190602001808311611c2257829003601f168201915b505050505081526020019060010190611b97565b505050509050935093509350935090919293565b606060018054600181600116156101000203166002900480601f016020809104026020016040519081016040528092919081815260200182805460018160011615610100020316600290048015611cff5780601f10611cd457610100808354040283529160200191611cff565b820191906000526020600020905b815481529060010190602001808311611ce257829003601f168201915b5050505050905090565b828054828255906000526020600020908101928215611d685760005260206000209182015b82811115611d675782829080546001816001161561010002031660029004611d57929190611ed8565b5091600101919060010190611d2e565b5b509050611d759190611f5f565b5090565b828054828255906000526020600020908101928215611dc8579160200282015b82811115611dc7578251829080519060200190611db7929190611f8b565b5091602001919060010190611d99565b5b509050611dd59190611f5f565b5090565b828054828255906000526020600020908101928215611e15579160200282015b82811115611e14578251825591602001919060010190611df9565b5b509050611e22919061200b565b5090565b815481835581811115611e5357600602816006028360005260206000209182019101611e529190612030565b5b505050565b828054600181600116156101000203166002900490600052602060002090601f016020900481019282601f10611e9957805160ff1916838001178555611ec7565b82800160010185558215611ec7579182015b82811115611ec6578251825591602001919060010190611eab565b5b509050611ed4919061200b565b5090565b828054600181600116156101000203166002900490600052602060002090601f016020900481019282601f10611f115780548555611f4e565b82800160010185558215611f4e57600052602060002091601f016020900482015b82811115611f4d578254825591600101919060010190611f32565b5b509050611f5b919061200b565b5090565b611f8891905b80821115611f845760008181611f7b91906120c2565b50600101611f65565b5090565b90565b828054600181600116156101000203166002900490600052602060002090601f016020900481019282601f10611fcc57805160ff1916838001178555611ffa565b82800160010185558215611ffa579182015b82811115611ff9578251825591602001919060010190611fde565b5b509050612007919061200b565b5090565b61202d91905b80821115612029576000816000905550600101612011565b5090565b90565b6120bf91905b808211156120bb57600080820160006101000a81549073ffffffffffffffffffffffffffffffffffffffff0219169055600182016000612076919061210a565b600282016000612086919061212b565b600382016000905560048201600061209e919061210a565b6005820160006101000a81549060ff021916905550600601612036565b5090565b90565b50805460018160011615610100020316600290046000825580601f106120e85750612107565b601f016020900490600052602060002090810190612106919061200b565b5b50565b50805460008255906000526020600020908101906121289190611f5f565b50565b5080546000825590600052602060002090810190612149919061200b565b50565b60008135905061215b81612e17565b92915050565b600082601f83011261217257600080fd5b813561218561218082612b86565b612b59565b9150818183526020840193506020810190508360005b838110156121cb57813586016121b18882612258565b84526020840193506020830192505060018101905061219b565b5050505092915050565b600082601f8301126121e657600080fd5b81356121f96121f482612bae565b612b59565b9150818183526020840193506020810190508385602084028201111561221e57600080fd5b60005b8381101561224e57816122348882612300565b845260208401935060208301925050600181019050612221565b5050505092915050565b600082601f83011261226957600080fd5b813561227c61227782612bd6565b612b59565b9150808252602083016020830185838301111561229857600080fd5b6122a3838284612db7565b50505092915050565b600082601f8301126122bd57600080fd5b81356122d06122cb82612c02565b612b59565b915080825260208301602083018583830111156122ec57600080fd5b6122f7838284612db7565b50505092915050565b60008135905061230f81612e2e565b92915050565b60006020828403121561232757600080fd5b60006123358482850161214c565b91505092915050565b6000806000806080858703121561235457600080fd5b60006123628782880161214c565b945050602085013567ffffffffffffffff81111561237f57600080fd5b61238b87828801612161565b935050604085013567ffffffffffffffff8111156123a857600080fd5b6123b4878288016121d5565b925050606085013567ffffffffffffffff8111156123d157600080fd5b6123dd87828801612161565b91505092959194509250565b60008060008060008060c0878903121561240257600080fd5b600061241089828a0161214c565b965050602087013567ffffffffffffffff81111561242d57600080fd5b61243989828a016122ac565b955050604087013567ffffffffffffffff81111561245657600080fd5b61246289828a016122ac565b945050606061247389828a01612300565b935050608061248489828a01612300565b92505060a061249589828a01612300565b9150509295509295509295565b600080600080608085870312156124b857600080fd5b600085013567ffffffffffffffff8111156124d257600080fd5b6124de87828801612161565b945050602085013567ffffffffffffffff8111156124fb57600080fd5b61250787828801612161565b935050604085013567ffffffffffffffff81111561252457600080fd5b612530878288016121d5565b925050606085013567ffffffffffffffff81111561254d57600080fd5b61255987828801612161565b91505092959194509250565b60006020828403121561257757600080fd5b600061258584828501612300565b91505092915050565b600080604083850312156125a157600080fd5b60006125af85828601612300565b92505060206125c085828601612300565b9150509250929050565b60006125d68383612703565b905092915050565b60006125ea838361282d565b905092915050565b60006125fe838361289f565b60208301905092915050565b61261381612d4a565b82525050565b600061262482612c6e565b61262e8185612ce4565b93508360208202850161264085612c2e565b8060005b8581101561267c578484038952815161265d85826125ca565b945061266883612cb0565b925060208a01995050600181019050612644565b50829750879550505050505092915050565b600061269982612c84565b6126a38185612d06565b9350836020820285016126b585612c4e565b8060005b858110156126f157848403895281516126d285826125de565b94506126dd83612cca565b925060208a019950506001810190506126b9565b50829750879550505050505092915050565b600061270e82612c79565b6127188185612cf5565b93508360208202850161272a85612c3e565b8060005b85811015612766578484038952815161274785826125de565b945061275283612cbd565b925060208a0199505060018101905061272e565b50829750879550505050505092915050565b600061278382612c8f565b61278d8185612d17565b935061279883612c5e565b8060005b838110156127c95781516127b088826125f2565b97506127bb83612cd7565b92505060018101905061279c565b5085935050505092915050565b6127df81612d5c565b82525050565b6127ee81612da5565b82525050565b60006127ff82612ca5565b6128098185612d39565b9350612819818560208601612dc6565b61282281612df9565b840191505092915050565b600061283882612c9a565b6128428185612d28565b9350612852818560208601612dc6565b61285b81612df9565b840191505092915050565b600061287182612c9a565b61287b8185612d39565b935061288b818560208601612dc6565b61289481612df9565b840191505092915050565b6128a881612d9b565b82525050565b6128b781612d9b565b82525050565b60006020820190506128d2600083018461260a565b92915050565b600060c0820190506128ed600083018961260a565b81810360208301526128ff81886127f4565b9050818103604083015261291381876127f4565b905061292260608301866128ae565b61292f60808301856128ae565b61293c60a08301846128ae565b979650505050505050565b600060a08201905061295c600083018861260a565b61296960208301876128ae565b818103604083015261297b818661268e565b9050818103606083015261298f8185612778565b905061299e60808301846127e5565b9695505050505050565b60006060820190506129bd600083018661260a565b6129ca60208301856128ae565b6129d760408301846127e5565b949350505050565b600060608201905081810360008301526129f9818661268e565b90508181036020830152612a0d8185612619565b9050612a1c604083018461260a565b949350505050565b60006080820190508181036000830152612a3e818761268e565b90508181036020830152612a528186612619565b9050612a61604083018561260a565b8181036060830152612a738184612778565b905095945050505050565b60006080820190508181036000830152612a98818761268e565b90508181036020830152612aac818661268e565b90508181036040830152612ac08185612778565b90508181036060830152612ad4818461268e565b905095945050505050565b6000602082019050612af460008301846127d6565b92915050565b60006020820190508181036000830152612b148184612866565b905092915050565b60006020820190508181036000830152612b3681846127f4565b905092915050565b6000602082019050612b5360008301846128ae565b92915050565b6000604051905081810181811067ffffffffffffffff82111715612b7c57600080fd5b8060405250919050565b600067ffffffffffffffff821115612b9d57600080fd5b602082029050602081019050919050565b600067ffffffffffffffff821115612bc557600080fd5b602082029050602081019050919050565b600067ffffffffffffffff821115612bed57600080fd5b601f19601f8301169050602081019050919050565b600067ffffffffffffffff821115612c1957600080fd5b601f19601f8301169050602081019050919050565b6000819050602082019050919050565b6000819050602082019050919050565b6000819050602082019050919050565b6000819050602082019050919050565b600081519050919050565b600081519050919050565b600081519050919050565b600081519050919050565b600081519050919050565b600081519050919050565b6000602082019050919050565b6000602082019050919050565b6000602082019050919050565b6000602082019050919050565b600082825260208201905092915050565b600082825260208201905092915050565b600082825260208201905092915050565b600082825260208201905092915050565b600082825260208201905092915050565b600082825260208201905092915050565b6000612d5582612d7b565b9050919050565b60008115159050919050565b6000819050612d7682612e0a565b919050565b600073ffffffffffffffffffffffffffffffffffffffff82169050919050565b6000819050919050565b6000612db082612d68565b9050919050565b82818337600083830152505050565b60005b83811015612de4578082015181840152602081019050612dc9565b83811115612df3576000848401525b50505050565b6000601f19601f8301169050919050565b60038110612e1457fe5b50565b612e2081612d4a565b8114612e2b57600080fd5b50565b612e3781612d9b565b8114612e4257600080fd5b5056fea365627a7a72315820df23e47f9356d6e42e572f7ed34a566219b51be0c6c6aad8bfb0e983f77e85ff6c6578706572696d656e74616cf564736f6c634300050c0040",
  "source": "pragma solidity ^0.5.11;\npragma experimental ABIEncoderV2;\n\n\ncontract Tender {   \n    address public governmentOfficerAddress;\n    string public tenderName; \n    string public tenderId;\n    //string public organisationChain;\n    //string public tenderRefNum;\n    //string public tenderType;\n    //string public tenderCategory;\n    uint256 public bidSubmissionClosingDate;\n    uint256 public bidOpeningDate;\n    uint256 public covers;\n    string[] public clauses;\n    string[] public taskName;\n    uint256[] public taskDays;\n    string[] public constraints;\n    uint256 finalTenderAmount;\n\n    struct ContractorProposal {\n        address contractorAddress;\n        string[] quotationClause;\n        uint256[] quotationAmount;\n        uint256 proposalAmount;\n        //mapping(string=>uint) quotations;\n        string[] constraintDocuments;\n        ProposalStatus status;\n    }\n\n    enum ProposalStatus {\n        verified,\n        unverified,\n        rejected\n    }\n\n    ContractorProposal[] public allContractorProposals;\n    mapping (address => ProposalStatus) isProposalVerified;\n\n    constructor()public{\n\n    }\n\n    \n\n    function getTenderName() public view returns (string memory ) {\n        return tenderName;\n    }\n\n    function setTenderBasic(address _governmentOfficerAddress, string memory _tenderName, string memory _tenderId, \n    //string _organisationChain, string _tenderRefNum,\n    uint256 _bidSubmissionClosingDate, uint256 _bidOpeningDate, uint256 _covers) public {\n        governmentOfficerAddress = _governmentOfficerAddress;   \n        tenderName = _tenderName;\n        tenderId = _tenderId;\n        //organisationChain = _organisationChain;\n        //tenderRefNum = _tenderRefNum;\n        // tenderType = _tenderType;\n        // tenderCategory = _tenderCategory;\n        bidSubmissionClosingDate = _bidSubmissionClosingDate;\n        bidOpeningDate = _bidOpeningDate;\n        covers = _covers;\n        finalTenderAmount = 0;\n    }\n    \n    function setTenderAdvanced(string[] memory _clauses,\n    string[] memory _taskName, uint256[]  memory _taskDays,\n    string[] memory _constraints) public {\n        clauses = _clauses;\n        taskName = _taskName;\n        taskDays = _taskDays;\n        constraints = _constraints;\n    }\n\n    function getTenderBasic() public view returns (address, string memory, string memory,\n    uint, uint, uint) {\n        return (governmentOfficerAddress, tenderName, tenderId, \n        bidSubmissionClosingDate, bidOpeningDate, covers);\n    }\n\n    function getTenderAdvanced() public view returns (string[] memory, string[] memory, uint256[] memory, string[] memory) {\n        return (clauses, taskName, taskDays, constraints );\n    }\n\n    function bid(address _contractorAddress,\n    string[] memory _quotationClause, uint256[]  memory _quotationAmount, string[] memory _constraintDocuments) public returns (bool) {\n        ContractorProposal storage temp = allContractorProposals[allContractorProposals.length++];\n        temp.contractorAddress = _contractorAddress;\n        for (uint i=0; i < _quotationClause.length; i++) {\n            temp.quotationClause[i] = _quotationClause[i];\n            temp.quotationAmount[i] = _quotationAmount[i];\n            temp.proposalAmount += _quotationAmount[i];\n        }\n        for (uint j=0; j < _constraintDocuments.length; j++) {\n            temp.constraintDocuments[j] = _constraintDocuments[j];\n        }\n        temp.status = ProposalStatus.unverified;\n        return true;\n    }  \n\n    function getBiddindCloseDate() public returns (uint256) {\n        return bidSubmissionClosingDate;\n    }\n\n    function getProposalCount() public view returns (uint256) {\n        return allContractorProposals.length;\n    }\n\n    function setTenderAmount(uint256 amount) public {\n        if (amount != 0 && finalTenderAmount == 0)\n            finalTenderAmount = amount;\n    }\n\n    string[][] public tempDocuments ;\n\n    function getProposalsToVerify(uint index) public returns (string[] memory, string[][] memory, address) {\n        //loop at web3\n        // string[][] storage tempDocuments ;\n\n        address tempAddresses;\n        if (allContractorProposals[index].status == ProposalStatus.unverified) {\n            tempDocuments.push(allContractorProposals[index].constraintDocuments);\n            tempAddresses = allContractorProposals[index].contractorAddress;\n        }\n        return (constraints, tempDocuments, tempAddresses);\n    }\n\n    function verifyProposal(address contractorAddress) public {\n        isProposalVerified[contractorAddress] = ProposalStatus.verified;\n    }\n\n    function rejectProposal(address contractorAddress) public {\n        isProposalVerified[contractorAddress] = ProposalStatus.rejected;\n    }\n\n    function getProposal(uint256 index) public view returns (address, uint256, string[] memory , uint256[] memory, ProposalStatus) {\n        if (index > allContractorProposals.length) revert();\n        return (allContractorProposals[index].contractorAddress, \n        allContractorProposals[index].proposalAmount, allContractorProposals[index].quotationClause,\n        allContractorProposals[index].quotationAmount, allContractorProposals[index].status);\n    }\n\n    string[][] public tempDocuments1 ;\n\n    function getVerifiedProposals(uint index) public returns (string[] memory, string[][] memory, address, uint[] memory) {\n        //loop at web3\n        // string[][] storage  tempDocuments ;\n        address tempAddresses;\n        uint[] memory tempAmount;\n        if (allContractorProposals[index].status == ProposalStatus.verified) {\n            tempDocuments1.push(allContractorProposals[index].constraintDocuments);\n            tempAddresses = allContractorProposals[index].contractorAddress;\n            tempAmount = allContractorProposals[index].quotationAmount;\n        }\n        return (constraints, tempDocuments1, tempAddresses, tempAmount);\n    }\n    \n}",
  "sourcePath": "/home/vipin/Desktop/tender_SIH/contracts/Tender.sol",
  "compiler": {
    "name": "solc",
    "version": "0.5.12+commit.7709ece9.Emscripten.clang"
  },
  "schemaVersion": "3.0.20",
  "updatedAt": "2020-01-09T09:45:15.561Z",
  "devdoc": {
    "methods": {}
  },
  "userdoc": {
    "methods": {}
  }
}