{
  "contractName": "TenderRepo",
  "abi": [
    {
      "inputs": [],
      "payable": false,
      "stateMutability": "nonpayable",
      "type": "constructor"
    },
    {
      "constant": true,
      "inputs": [
        {
          "internalType": "address",
          "name": "",
          "type": "address"
        }
      ],
      "name": "tenderMapping",
      "outputs": [
        {
          "internalType": "enum TenderRepo.TenderStatus",
          "name": "",
          "type": "uint8"
        }
      ],
      "payable": false,
      "stateMutability": "view",
      "type": "function"
    },
    {
      "constant": true,
      "inputs": [
        {
          "internalType": "uint256",
          "name": "",
          "type": "uint256"
        }
      ],
      "name": "tenders",
      "outputs": [
        {
          "internalType": "address",
          "name": "",
          "type": "address"
        }
      ],
      "payable": false,
      "stateMutability": "view",
      "type": "function"
    },
    {
      "constant": false,
      "inputs": [
        {
          "internalType": "address",
          "name": "tenderToAppend",
          "type": "address"
        }
      ],
      "name": "newTender",
      "outputs": [
        {
          "internalType": "bool",
          "name": "",
          "type": "bool"
        }
      ],
      "payable": false,
      "stateMutability": "nonpayable",
      "type": "function"
    },
    {
      "constant": false,
      "inputs": [
        {
          "internalType": "address",
          "name": "tenderAddress",
          "type": "address"
        }
      ],
      "name": "getTenderStatus",
      "outputs": [
        {
          "internalType": "enum TenderRepo.TenderStatus",
          "name": "",
          "type": "uint8"
        }
      ],
      "payable": false,
      "stateMutability": "nonpayable",
      "type": "function"
    },
    {
      "constant": true,
      "inputs": [],
      "name": "getAllTenders",
      "outputs": [
        {
          "internalType": "address[]",
          "name": "",
          "type": "address[]"
        }
      ],
      "payable": false,
      "stateMutability": "view",
      "type": "function"
    },
    {
      "constant": true,
      "inputs": [],
      "name": "getTenderCount",
      "outputs": [
        {
          "internalType": "uint256",
          "name": "",
          "type": "uint256"
        }
      ],
      "payable": false,
      "stateMutability": "view",
      "type": "function"
    },
    {
      "constant": true,
      "inputs": [
        {
          "internalType": "uint256",
          "name": "index",
          "type": "uint256"
        }
      ],
      "name": "getOngoingTenders",
      "outputs": [
        {
          "internalType": "address",
          "name": "",
          "type": "address"
        }
      ],
      "payable": false,
      "stateMutability": "view",
      "type": "function"
    },
    {
      "constant": false,
      "inputs": [
        {
          "internalType": "address",
          "name": "tenderAddress",
          "type": "address"
        }
      ],
      "name": "updateTenderStatusToBiddingComplete",
      "outputs": [],
      "payable": false,
      "stateMutability": "nonpayable",
      "type": "function"
    },
    {
      "constant": false,
      "inputs": [
        {
          "internalType": "address",
          "name": "tenderAddress",
          "type": "address"
        }
      ],
      "name": "updateTenderStatusToDeployed",
      "outputs": [],
      "payable": false,
      "stateMutability": "nonpayable",
      "type": "function"
    }
  ],
  "bytecode": "0x608060405234801561001057600080fd5b506108cc806100206000396000f3fe608060405234801561001057600080fd5b50600436106100935760003560e01c8063465e1def11610066578063465e1def1461011e5780635850b3831461014e57806380650c861461016c5780639f53827f1461019c578063b6af93c8146101cc57610093565b806304a01abe146100985780631ee1acb6146100b45780632358c046146100e457806336b4181c14610102575b600080fd5b6100b260048036036100ad9190810190610607565b6101fc565b005b6100ce60048036036100c99190810190610607565b610260565b6040516100db9190610757565b60405180910390f35b6100ec610331565b6040516100f99190610735565b60405180910390f35b61011c60048036036101179190810190610607565b6103bf565b005b61013860048036036101339190810190610630565b610422565b604051610145919061071a565b60405180910390f35b61015661045e565b604051610163919061078d565b60405180910390f35b61018660048036036101819190810190610630565b61046a565b604051610193919061071a565b60405180910390f35b6101b660048036036101b19190810190610607565b610567565b6040516101c39190610772565b60405180910390f35b6101e660048036036101e19190810190610607565b6105bd565b6040516101f39190610772565b60405180910390f35b6002600160008373ffffffffffffffffffffffffffffffffffffffff1673ffffffffffffffffffffffffffffffffffffffff16815260200190815260200160002060006101000a81548160ff0219169083600281111561025857fe5b021790555050565b6000808290806001815401808255809150509060018203906000526020600020016000909192909190916101000a81548173ffffffffffffffffffffffffffffffffffffffff021916908373ffffffffffffffffffffffffffffffffffffffff160217905550506000600160008473ffffffffffffffffffffffffffffffffffffffff1673ffffffffffffffffffffffffffffffffffffffff16815260200190815260200160002060006101000a81548160ff0219169083600281111561032357fe5b021790555060019050919050565b606060008054806020026020016040519081016040528092919081815260200182805480156103b557602002820191906000526020600020905b8160009054906101000a900473ffffffffffffffffffffffffffffffffffffffff1673ffffffffffffffffffffffffffffffffffffffff168152602001906001019080831161036b575b5050505050905090565b60018060008373ffffffffffffffffffffffffffffffffffffffff1673ffffffffffffffffffffffffffffffffffffffff16815260200190815260200160002060006101000a81548160ff0219169083600281111561041a57fe5b021790555050565b6000818154811061042f57fe5b906000526020600020016000915054906101000a900473ffffffffffffffffffffffffffffffffffffffff1681565b60008080549050905090565b6000808054905082111561047d57600080fd5b6000600281111561048a57fe5b6001600080858154811061049a57fe5b9060005260206000200160009054906101000a900473ffffffffffffffffffffffffffffffffffffffff1673ffffffffffffffffffffffffffffffffffffffff1673ffffffffffffffffffffffffffffffffffffffff16815260200190815260200160002060009054906101000a900460ff16600281111561051857fe5b141561055d576000828154811061052b57fe5b9060005260206000200160009054906101000a900473ffffffffffffffffffffffffffffffffffffffff169050610562565b600080fd5b919050565b6000600160008373ffffffffffffffffffffffffffffffffffffffff1673ffffffffffffffffffffffffffffffffffffffff16815260200190815260200160002060009054906101000a900460ff169050919050565b60016020528060005260406000206000915054906101000a900460ff1681565b6000813590506105ec8161085b565b92915050565b60008135905061060181610872565b92915050565b60006020828403121561061957600080fd5b6000610627848285016105dd565b91505092915050565b60006020828403121561064257600080fd5b6000610650848285016105f2565b91505092915050565b60006106658383610671565b60208301905092915050565b61067a816107e1565b82525050565b610689816107e1565b82525050565b600061069a826107b8565b6106a481856107d0565b93506106af836107a8565b8060005b838110156106e05781516106c78882610659565b97506106d2836107c3565b9250506001810190506106b3565b5085935050505092915050565b6106f6816107f3565b82525050565b6107058161083c565b82525050565b61071481610832565b82525050565b600060208201905061072f6000830184610680565b92915050565b6000602082019050818103600083015261074f818461068f565b905092915050565b600060208201905061076c60008301846106ed565b92915050565b600060208201905061078760008301846106fc565b92915050565b60006020820190506107a2600083018461070b565b92915050565b6000819050602082019050919050565b600081519050919050565b6000602082019050919050565b600082825260208201905092915050565b60006107ec82610812565b9050919050565b60008115159050919050565b600081905061080d8261084e565b919050565b600073ffffffffffffffffffffffffffffffffffffffff82169050919050565b6000819050919050565b6000610847826107ff565b9050919050565b6003811061085857fe5b50565b610864816107e1565b811461086f57600080fd5b50565b61087b81610832565b811461088657600080fd5b5056fea365627a7a723158209e84cdff88041effac5240c6ff8848699d274e4f77acc70d0a6c4fe39b3ebd4e6c6578706572696d656e74616cf564736f6c634300050c0040",
  "source": "pragma solidity ^0.5.11;\npragma experimental ABIEncoderV2;\n\n\ncontract TenderRepo {\n    address[] public tenders;\n    \n    enum TenderStatus {\n        activeOnBid,\n        biddingComplete,\n        contractDeployed\n    }\n\n    mapping (address => TenderStatus) public tenderMapping;\n\n    constructor()public{\n\n    }\n\n\n    function newTender(address tenderToAppend) public returns (bool) {\n        tenders.push(tenderToAppend);\n        tenderMapping[tenderToAppend] = TenderStatus.activeOnBid;\n        return true;\n    }\n\n    function getTenderStatus(address tenderAddress) public returns (TenderStatus) {\n        return tenderMapping[tenderAddress];\n    }\n\n    function getAllTenders() public view returns (address[] memory) {\n        //to be used by verifier\n        return tenders;\n    }\n\n    function getTenderCount() public view returns (uint256) {\n        return tenders.length;\n    }\n\n    function getOngoingTenders(uint256 index) public view returns (address) {\n        //loop at web3\n        if (index > tenders.length) revert();\n        if (tenderMapping[tenders[index]] == TenderStatus.activeOnBid) {\n            return tenders[index]; \n        }\n        revert();\n    }\n\n    function updateTenderStatusToBiddingComplete(address tenderAddress) public {\n        tenderMapping[tenderAddress] = TenderStatus.biddingComplete;\n    }\n\n    function updateTenderStatusToDeployed(address tenderAddress) public {\n        tenderMapping[tenderAddress] = TenderStatus.contractDeployed;\n    }\n}",
  "sourcePath": "/home/vipin/Desktop/tender_SIH/contracts/TenderRepo.sol",
  "compiler": {
    "name": "solc",
    "version": "0.5.12+commit.7709ece9.Emscripten.clang"
  },
  "schemaVersion": "3.0.20",
  "updatedAt": "2020-01-09T09:45:15.579Z",
  "devdoc": {
    "methods": {}
  },
  "userdoc": {
    "methods": {}
  }
}