{
  "contractName": "Verifier",
  "abi": [
    {
      "inputs": [],
      "payable": false,
      "stateMutability": "nonpayable",
      "type": "constructor"
    },
    {
      "constant": false,
      "inputs": [
        {
          "internalType": "address",
          "name": "_walletAddress",
          "type": "address"
        },
        {
          "internalType": "string",
          "name": "_email",
          "type": "string"
        },
        {
          "internalType": "string",
          "name": "_phoneNumber",
          "type": "string"
        },
        {
          "internalType": "string",
          "name": "_name",
          "type": "string"
        },
        {
          "internalType": "string",
          "name": "_employeeId",
          "type": "string"
        }
      ],
      "name": "setVerifier",
      "outputs": [
        {
          "internalType": "bool",
          "name": "",
          "type": "bool"
        }
      ],
      "payable": false,
      "stateMutability": "nonpayable",
      "type": "function"
    },
    {
      "constant": false,
      "inputs": [
        {
          "internalType": "address",
          "name": "govtOfficer",
          "type": "address"
        }
      ],
      "name": "verifyGovernmentOfficer",
      "outputs": [
        {
          "internalType": "bool",
          "name": "",
          "type": "bool"
        }
      ],
      "payable": false,
      "stateMutability": "nonpayable",
      "type": "function"
    },
    {
      "constant": false,
      "inputs": [
        {
          "internalType": "address",
          "name": "contrator",
          "type": "address"
        }
      ],
      "name": "verifyContractor",
      "outputs": [
        {
          "internalType": "bool",
          "name": "",
          "type": "bool"
        }
      ],
      "payable": false,
      "stateMutability": "nonpayable",
      "type": "function"
    },
    {
      "constant": false,
      "inputs": [
        {
          "internalType": "address",
          "name": "tender",
          "type": "address"
        }
      ],
      "name": "verifyProposalDocuments",
      "outputs": [
        {
          "internalType": "bool",
          "name": "",
          "type": "bool"
        }
      ],
      "payable": false,
      "stateMutability": "nonpayable",
      "type": "function"
    },
    {
      "constant": true,
      "inputs": [],
      "name": "myVerifiedDocuments",
      "outputs": [
        {
          "internalType": "address[]",
          "name": "",
          "type": "address[]"
        }
      ],
      "payable": false,
      "stateMutability": "view",
      "type": "function"
    },
    {
      "constant": true,
      "inputs": [],
      "name": "myVerifiedOfficers",
      "outputs": [
        {
          "internalType": "address[]",
          "name": "",
          "type": "address[]"
        }
      ],
      "payable": false,
      "stateMutability": "view",
      "type": "function"
    },
    {
      "constant": true,
      "inputs": [],
      "name": "myVerifiedContractors",
      "outputs": [
        {
          "internalType": "address[]",
          "name": "",
          "type": "address[]"
        }
      ],
      "payable": false,
      "stateMutability": "view",
      "type": "function"
    },
    {
      "constant": false,
      "inputs": [],
      "name": "logout",
      "outputs": [
        {
          "internalType": "bool",
          "name": "",
          "type": "bool"
        }
      ],
      "payable": false,
      "stateMutability": "nonpayable",
      "type": "function"
    }
  ],
  "bytecode": "0x608060405234801561001057600080fd5b5061098a806100206000396000f3fe608060405234801561001057600080fd5b50600436106100885760003560e01c8063ad43f2ec1161005b578063ad43f2ec14610129578063c12bddae14610147578063dc7a72e714610177578063ed015aa6146101a757610088565b806308793b9a1461008d578063131b592c146100ab5780631f3c99c3146100db5780632e078452146100f9575b600080fd5b6100956101c5565b6040516100a29190610814565b60405180910390f35b6100c560048036036100c09190810190610680565b610253565b6040516100d29190610836565b60405180910390f35b6100e36102c4565b6040516100f09190610836565b60405180910390f35b610113600480360361010e9190810190610680565b6102c9565b6040516101209190610836565b60405180910390f35b61013161033a565b60405161013e9190610814565b60405180910390f35b610161600480360361015c91908101906106a9565b6103c8565b60405161016e9190610836565b60405180910390f35b610191600480360361018c9190810190610680565b610473565b60405161019e9190610836565b60405180910390f35b6101af6104e4565b6040516101bc9190610814565b60405180910390f35b6060600780548060200260200160405190810160405280929190818152602001828054801561024957602002820191906000526020600020905b8160009054906101000a900473ffffffffffffffffffffffffffffffffffffffff1673ffffffffffffffffffffffffffffffffffffffff16815260200190600101908083116101ff575b5050505050905090565b600060058290806001815401808255809150509060018203906000526020600020016000909192909190916101000a81548173ffffffffffffffffffffffffffffffffffffffff021916908373ffffffffffffffffffffffffffffffffffffffff1602179055505060019050919050565b600090565b600060068290806001815401808255809150509060018203906000526020600020016000909192909190916101000a81548173ffffffffffffffffffffffffffffffffffffffff021916908373ffffffffffffffffffffffffffffffffffffffff1602179055505060019050919050565b606060058054806020026020016040519081016040528092919081815260200182805480156103be57602002820191906000526020600020905b8160009054906101000a900473ffffffffffffffffffffffffffffffffffffffff1673ffffffffffffffffffffffffffffffffffffffff1681526020019060010190808311610374575b5050505050905090565b6000856000806101000a81548173ffffffffffffffffffffffffffffffffffffffff021916908373ffffffffffffffffffffffffffffffffffffffff1602179055508460019080519060200190610420929190610572565b508360029080519060200190610437929190610572565b50826003908051906020019061044e929190610572565b508160049080519060200190610465929190610572565b506001905095945050505050565b600060078290806001815401808255809150509060018203906000526020600020016000909192909190916101000a81548173ffffffffffffffffffffffffffffffffffffffff021916908373ffffffffffffffffffffffffffffffffffffffff1602179055505060019050919050565b6060600680548060200260200160405190810160405280929190818152602001828054801561056857602002820191906000526020600020905b8160009054906101000a900473ffffffffffffffffffffffffffffffffffffffff1673ffffffffffffffffffffffffffffffffffffffff168152602001906001019080831161051e575b5050505050905090565b828054600181600116156101000203166002900490600052602060002090601f016020900481019282601f106105b357805160ff19168380011785556105e1565b828001600101855582156105e1579182015b828111156105e05782518255916020019190600101906105c5565b5b5090506105ee91906105f2565b5090565b61061491905b808211156106105760008160009055506001016105f8565b5090565b90565b60008135905061062681610930565b92915050565b600082601f83011261063d57600080fd5b813561065061064b8261087e565b610851565b9150808252602083016020830185838301111561066c57600080fd5b610677838284610921565b50505092915050565b60006020828403121561069257600080fd5b60006106a084828501610617565b91505092915050565b600080600080600060a086880312156106c157600080fd5b60006106cf88828901610617565b955050602086013567ffffffffffffffff8111156106ec57600080fd5b6106f88882890161062c565b945050604086013567ffffffffffffffff81111561071557600080fd5b6107218882890161062c565b935050606086013567ffffffffffffffff81111561073e57600080fd5b61074a8882890161062c565b925050608086013567ffffffffffffffff81111561076757600080fd5b6107738882890161062c565b9150509295509295909350565b600061078c8383610798565b60208301905092915050565b6107a1816108e3565b82525050565b60006107b2826108ba565b6107bc81856108d2565b93506107c7836108aa565b8060005b838110156107f85781516107df8882610780565b97506107ea836108c5565b9250506001810190506107cb565b5085935050505092915050565b61080e816108f5565b82525050565b6000602082019050818103600083015261082e81846107a7565b905092915050565b600060208201905061084b6000830184610805565b92915050565b6000604051905081810181811067ffffffffffffffff8211171561087457600080fd5b8060405250919050565b600067ffffffffffffffff82111561089557600080fd5b601f19601f8301169050602081019050919050565b6000819050602082019050919050565b600081519050919050565b6000602082019050919050565b600082825260208201905092915050565b60006108ee82610901565b9050919050565b60008115159050919050565b600073ffffffffffffffffffffffffffffffffffffffff82169050919050565b82818337600083830152505050565b610939816108e3565b811461094457600080fd5b5056fea365627a7a72315820ab983aa28aab886ee78869973a6a3f5b50b0ac98bb977ec6b288930c0774b2516c6578706572696d656e74616cf564736f6c634300050c0040",
  "source": "pragma solidity ^0.5.11;\npragma experimental ABIEncoderV2;\n\n\ncontract Verifier {\n\n    address walletAddress;\n    string email;\n    string phoneNumber;\n    string name;\n    string employeeId;\n    address[] documentsVerified;\n    address[] officersVerified;\n    address[] contractorsVerified;\n\n    constructor()public{\n\n    }\n    function setVerifier (address _walletAddress, string memory _email, string memory _phoneNumber, string memory _name, \n    string memory _employeeId) public returns (bool) {\n        walletAddress = _walletAddress;\n        email = _email;\n        phoneNumber = _phoneNumber;\n        name = _name;\n        employeeId = _employeeId;\n        return true;\n    }\n\n    // function login(address userAddress, string role) public  returns (string) {\n    // }\n\n    // //unverified\n    // function getAllUnverifiedGovernmentOfficers(string token) public returns (address[]) {\n    //     //defined in GovernmentOfficerRepo\n    // }    \n\n    // function getAllUnverifiedContractors(string token) public returns (address[]) {\n    //     //defined in ContractorRepo\n    // }   \n\n    // function getAllUnverifiedDocuments(string token) public returns (string[]) {\n    //     //getProposalToVerify() in Tender.sol\n    // }\n\n\n    // verification\n    function verifyGovernmentOfficer(address govtOfficer) public returns (bool) {\n        officersVerified.push(govtOfficer);\n        return true;\n    }\n\n    function verifyContractor(address contrator) public returns (bool) {\n        contractorsVerified.push(contrator);\n        return true;\n    }\n\n    function verifyProposalDocuments(address tender) public returns (bool) {\n        documentsVerified.push(tender);\n        return true;\n    }\n\n    function myVerifiedDocuments() public view returns (address[] memory) {\n        return documentsVerified;\n    }\n\n    function myVerifiedOfficers() public view returns (address[] memory) {\n        return officersVerified;\n    }\n\n    function myVerifiedContractors() public view returns (address[] memory) {\n        return contractorsVerified;\n    }\n\n    function logout() public returns(bool) {\n\n    }\n}",
  "sourcePath": "/home/vipin/Desktop/tender_SIH/contracts/Verifier.sol",
  "compiler": {
    "name": "solc",
    "version": "0.5.12+commit.7709ece9.Emscripten.clang"
  },
  "schemaVersion": "3.0.20",
  "updatedAt": "2020-01-09T09:45:15.585Z",
  "devdoc": {
    "methods": {}
  },
  "userdoc": {
    "methods": {}
  }
}